:100000000C945C030C9484030C9484030C94EF1FF5
:100010000C94EF1F0C94EF1F0C94B91E0C948403E6
:100020000C9484030C9484030C9484030C94840334
:100030000C9484030C9484030C9484030C94840324
:100040000C94171E0C9484030C94871E0C94611E50
:100050000C9484030C9484030C9484030C94840304
:100060000C94D01E0C94840300407A10F35A00A024
:10007000724E18090010A5D4E80000E87648170071
:1000800000E40B54020000CA9A3B000000E1F505B1
:10009000000080969800000040420F000000A086FB
:1000A00001000000102700000000E803000000002D
:1000B0006400000000000A000000000001000000D1
:1000C00000002C76D888DC674F0823DFC1DFAE59EB
:1000D000E1B1B796E5E3E453C63AE651997696E87E
:1000E000E6C28426EB898C9B62ED407C6FFCEFBC02
:1000F0009C9F40F2BAA56FA5F490055A2AF75C932D
:100100006B6CF9676DC11BFCE0E40D47FEF520E662
:10011000B500D0ED902E0300943577050080841E45
:10012000080000204E0A000000C80C333333330FA0
:10013000986E12831141EF8D2114893BE65516CF3D
:10014000FEE6DB18D1844B381BF77C1D901DA4BB49
:10015000E424203284725E228100C9F124ECA1E5FE
:100160003D275B4E42494F545D09002C2043757278
:1001700072656E743A200042657474657279205617
:100180006F6C6174653A20005B434D445D09005B10
:100190004932435D09005B504D555D090020004325
:1001A0006F6D6D616E64204552524F52004F4B008F
:1001B0004F4B2C004F4B2C004F4B2C204C6F77504B
:1001C0006F776572202D3E2000536C6565700020AE
:1001D000736563004F4B2C74696D6572202D3E2052
:1001E000004E6F20537472696E670053657420541B
:1001F000696D653E3E200052544354494D452C00E4
:1002000053657420446174653E3E2000525443445B
:100210004154452C0053657420536F756E643E3E07
:100220002000534F554E442C00536574206B506191
:100230003E3E20004B50612C00536574204C5558B5
:100240003E3E20004C55582C005365742048554DB7
:100250003E3E200048554D2C005365742054454DBA
:10026000503E3E200054454D502C005365742050A4
:100270004D3031303E3E2000504D3031302C005357
:10028000657420504D3130303E3E2000504D3130AD
:10029000302C0053657420504D3032353E3E2000E6
:1002A000504D3032352C00536574205241494E3E3A
:1002B0003E20005241494E2C005365742057443E65
:1002C0003E200057442C005365742057533E3E2077
:1002D0000057532C00436F6E74726F6C2053777409
:1002E00069636820546F20504D5500676574205332
:1002F0004C45455020636F6D6D616E6400534C45F5
:100300004550002C00436F6E74726F6C3A204F4E54
:1003100000207365632E0053657474696E67205303
:100320006C6565702054696D653A200020562E007A
:1003300053657474696E672057414B4520555020B2
:10034000566F6C6174653A2000506F776572205368
:10035000617665204D6F64653A204F4E0053657499
:1003600074696E6720494E41323139204932432049
:10037000616464726573733A203078005B537973FB
:1003800074656D5D204175746F736574206F6E20A8
:10039000005B53797374656D5D20494E464F20763E
:1003A000657273696F6E20312E322E345F61757401
:1003B0006F736574005B53797374656D5D2053656D
:1003C00074757020446F6E6500207365632E2E0077
:1003D000506F776572204F46462C205761697469CB
:1003E0006E67200041542B434950534855540041F7
:1003F000542B434950434C4F5345000D5265737085
:100400006F6E7365202D3E2000475053204F4646A7
:100410000041542B43474E535057523D30004750F4
:1004200053204552524F52202D3E20004C6F6E6794
:100430006974756465202D3E20004C617469747583
:100440006465202D3E20004750532054696D65207F
:100450002D3E20002B43474E53494E463A20312C27
:10046000312C0041542B43474E53494E46007320D4
:10047000666F722047505320736174656C6C6974A9
:100480006500475053204F4E2C2057616974696EA8
:1004900067200041542B43474E535057523D310083
:1004A000415400207365632E2E00506F77657220D3
:1004B0004F6E2C2057616974696E67200000000040
:1004C00000240027002A00000000080002010000AC
:1004D000030407000000000000000041542B4353B8
:1004E000510041542B435354543D2274776D2E6E6A
:1004F00062696F74220041542B4342414E4443468B
:10050000473D224E422D494F54222C332C32380085
:1005100041542B4353510041542B435354543D22D7
:10052000696E7465726E65742E696F742200415431
:100530002B4342414E444346473D224E422D494FB4
:1005400054222C3800526573706F6E7365202D3EF7
:100550002000222C220041542B4349505354415235
:10056000543D22544350222C220041542B434946EF
:1005700053520041542B43494943520041542B43A9
:100580004E4143543D310041542B43495053454E55
:10059000444845583D3100526573706F6E73652055
:1005A0002D3E2000202D3E200041542042756666DD
:1005B0006572202D3E2052656365203A20004F4B26
:1005C0000020493243202D2D3E20536C6176657208
:1005D000004552524F523A20566F6C617465203C70
:1005E0002057616B6520757020766F6C746167654C
:1005F00020280057616B65722075702C20696E6928
:1006000074204932432077697468204D61737465A2
:100610007220616E6420676574206265747465720F
:10062000792073746174652E2E2E00456E74657288
:1006300020534C454550204D6F6465004F66662041
:10064000746865204C4544202620436F6E74726F99
:100650006C20504F57455200507265706172652092
:10066000534C454550204D6F646500436F6E747266
:100670006F6C3A204F464600000000002300260021
:10068000290000000000250028002B0004040404B9
:10069000040404040202020202020303030303032C
:1006A0000102040810204080010204081020010209
:1006B00004081020EA20672011241FBECFEFD8E0E5
:1006C000DEBFCDBF13E0A0E0B1E0EAE5F3E602C093
:1006D00005900D92A03FB107D9F726E0A0EFB3E057
:1006E00001C01D92AF3CB207E1F713E0CBE5D3E0C8
:1006F00004C02197FE010E945A2FCA35D107C9F7BD
:100700000E9469220C94A0310C940000E091F60440
:10071000F091F704309729F0109256051092550584
:1007200009940895CF93DF93EC01E091F804F091E0
:10073000F9043097F1F0909158058091570598177A
:10074000C0F090E0292F30E02617370754F4DE017F
:10075000A20FB31F4C912D573B4FD9014C939F5F74
:10076000F1CF1092580560935705CB01DF91CF91DF
:100770000994DF91CF910895089520913806309122
:1007800039068217930738F42091340630913506E4
:100790002115310529F41092F50485EF94E00895B0
:1007A000820F931F089590E0FC01E953FB4F2491C1
:1007B000FC01E056F94F3491FC01E457F94FE49104
:1007C000EE23C9F0222339F0233001F1A8F42130BF
:1007D00019F1223029F1F0E0EE0FFF1FEE57F94F2B
:1007E000A591B4918FB7F894EC91611126C0309522
:1007F0003E233C938FBF08952730A9F02830C9F0DD
:10080000243049F7809180008F7D03C08091800063
:100810008F7780938000DFCF84B58F7784BDDBCF67
:1008200084B58F7DFBCF8091B0008F778093B0002F
:10083000D2CF8091B0008F7DF9CF3E2BDACFCF930E
:10084000DF9390E0FC01E056F94F24918457994FD3
:10085000FC0184918823D1F090E0880F991FFC015E
:10086000E354FB4FA591B491FC01EE57F94FC591AC
:10087000D49161110EC09FB7F8948C91E22FE0954E
:100880008E238C932881E223E8839FBFDF91CF9151
:1008900008958FB7F894EC91E22BEC938FBFF6CFCD
:1008A0008330910528F0880F991F04970197F1F77D
:1008B00008953FB7F8948091F1049091F204A091CB
:1008C000F304B091F40426B5A89B05C02F3F19F09E
:1008D0000196A11DB11D3FBFBA2FA92F982F8827C0
:1008E000BC01CD01620F711D811D911D43E0660F9A
:1008F000771F881F991F4A95D1F708958F929F926D
:10090000AF92BF92CF92DF92EF92FF926B017C0188
:100910000E9459044B015C01C114D104E104F104AB
:10092000B9F00E945904681979098A099B09683E3F
:1009300073408105910580F321E0C21AD108E108D6
:10094000F10888EE880E83E0981EA11CB11CE4CF4C
:10095000FF90EF90DF90CF90BF90AF909F908F90DF
:100960000895CF92DF92EF92FF92CF93DF936C01C5
:1009700061E08DE00E941F041092020510920105B3
:10098000F12CE12CC1E0D0E08091010590910205AD
:10099000892BB9F461E08DE00E94D303C701B60151
:1009A0000E947E0460E08DE00E94D3036CE271E05F
:1009B00080E090E00E947E04D0930205C093010580
:1009C000E3CFDF91CF91FF90EF90DF90CF9008952C
:1009D0000895DB0114964D915C9115976D917C9172
:1009E000DC01ED91FC910280F381E02D0994CF931D
:1009F000DF93EC01BC0189E595E00E94E904BE01AA
:100A000080E496E0DF91CF910C94E904EF92FF929D
:100A10000F931F93CF93DF938C017B01D0E0C0E055
:100A2000F701EC0FFD1F6491662361F0D801ED9191
:100A3000FC910190F081E02DC8010995892B11F0FE
:100A40002196EECFCE01DF91CF911F910F91FF90B4
:100A5000EF900895AF92BF92CF92DF92EF92FF9204
:100A60000F931F93CF93DF936C017B018B01040FD6
:100A7000151FEB015E01AE18BF08C017D10759F072
:100A80006991D601ED91FC910190F081E02DC601B4
:100A90000995892B79F7C501DF91CF911F910F91AE
:100AA000FF90EF90DF90CF90BF90AF900895FC0142
:100AB000538D448D252F30E0842F90E0821B930BC3
:100AC000541710F0CF96089501970895FC01918D69
:100AD000828D981761F0A28DAE0FBF2FB11D5D966C
:100AE0008C91928D9F5F9F73928F90E008958FEF0E
:100AF0009FEF0895FC01918D828D981731F0828DC2
:100B0000E80FF11D858D90E008958FEF9FEF089518
:100B1000FC01918D228D892F90E0805C9F4F821B7C
:100B200091098F739927089589E595E00E948805BA
:100B300021E0892B09F420E0822F089580E090E0E5
:100B4000892B29F00E94940581110C9400000895CE
:100B5000FC01A48DA80FB92FB11DA35ABF4F2C9132
:100B6000848D90E001968F739927848FA689B78929
:100B70002C93A089B1898C91837080648C93938D20
:100B8000848D981306C00288F389E02D80818F7DC3
:100B900080830895EF92FF920F931F93CF93DF937B
:100BA000EC0181E0888F9B8D8C8D98131AC0E889A9
:100BB000F989808185FF15C09FB7F894EE89FF8978
:100BC0006083E889F98980818370806480839FBF16
:100BD00081E090E0DF91CF911F910F91FF90EF9016
:100BE0000895F62E0B8D10E00F5F1F4F0F73112726
:100BF000E02E8C8D8E110CC00FB607FCFACFE88961
:100C0000F989808185FFF5CFCE010E94A805F1CF3B
:100C1000EB8DEC0FFD2FF11DE35AFF4FF0829FB7D4
:100C2000F8940B8FEA89FB8980818062CFCFCF93C4
:100C3000DF93EC01888D8823B9F0AA89BB89E88904
:100C4000F9898C9185FD03C0808186FD0DC00FB6AA
:100C500007FCF7CF8C9185FFF2CF808185FFEDCF28
:100C6000CE010E94A805E9CFDF91CF9108954115EB
:100C7000510529F4EAE7F0E080818F7780836A30BC
:100C80007105B9F0CB01880F991F880F991F8072E9
:100C900067706860682B88E10FB6F894A895809318
:100CA00060000FBE60936000E0E6F0E08081806449
:100CB0008083232BD9F483B7817F846083BFF8942A
:100CC00083B7816083BF85B7806685BF8F7D85BF11
:100CD0007894889583B78E7F83BF7894452B29F4C9
:100CE000EAE7F0E0808180688083089583B7817FA0
:100CF000846083BFF89483B7816083BF78948895BC
:100D000083B78E7F83BF7894E9CF2091C404260FE8
:100D10003327331F21323105ECF420912905FC01E2
:100D200090E080E0243069F082E00895A091C4044E
:100D30002191AC014C555B4FA40FB52FB11D2C93E5
:100D40000196861798F38091C404680F6093C404D9
:100D500080E0089581E00895ECEBF0E080818A7BEB
:100D6000808360E082E10E94D30360E083E10C9421
:100D7000D3031092290581E0809328051092030582
:100D800061E082E10E94D30361E083E10E94D3032A
:100D9000E9EBF0E080818E7F808380818D7F80838E
:100DA00080E28093B80085E48093BC00089510929F
:100DB00058051092570510925605109255050E943D
:100DC000B90686E893E0909354058093530582E931
:100DD00093E090935205809351050895CF93DF934C
:100DE00091E09093A304882361F0C091B800D09162
:100DF000BA000E94AC060E94B906D093BA00C09314
:100E0000B800DF91CF9108958F929F92AF92BF92D9
:100E1000CF92DF92EF92FF920F931F93CF93DF93C6
:100E2000D0915505D13208F0D7C0182FC091500588
:100E30000E9459046B017C018091290581116BC0CE
:100E400082E080932905109328058FEF8093270572
:100E500010922605D0932505A0E3B5E0E5E0F5E086
:100E600080E0D81391C01092040580910405CC0F46
:100E7000C82BC093040580910305813009F088C018
:100E8000109203050E9459046B017C0180910405B6
:100E90008093BB0080912B0590912C05A0912D058E
:100EA000B0912E05892B8A2B8B2BA1F00E9459041F
:100EB00000912B0510912C0520912D0530912E05C8
:100EC0006C197D098E099F0906171707280739072E
:100ED00008F442C08091BC0083FDD8CF85EC80939C
:100EE000BC000E9459046B017C018091290582306D
:100EF00009F450C0809127058F3F09F46FC080919D
:100F00002705803209F46CC080912705803309F4ED
:100F100069C084E026C080912B0590912C05A0919A
:100F20002D05B0912E05892B8A2B8B2B09F484CFAC
:100F30000E94590480902B0590902C05A0902D05BF
:100F4000B0902E056C197D098E099F0986169706AB
:100F5000A806B90608F070CF80912A050E94EE0617
:100F600085E0109256051092550510922F05DF91DD
:100F7000CF911F910F91FF90EF90DF90CF90BF9096
:100F8000AF909F908F9008959D9191938F5F69CFBF
:100F900085EEA5CF80912B0590912C05A0912D0574
:100FA000B0912E05892B8A2B8B2B09F49ECF0E94A2
:100FB000590400912B0510912C0520912D0530919D
:100FC0002E056C197D098E099F090617170728073A
:100FD000390708F08ACFC0CF81E0C3CF80E0C1CF0E
:100FE00082E0BFCF83E0BDCFE091580580915705E7
:100FF000E81730F4F0E0ED57FB4F808190E0089562
:101000008FEF9FEF089590915805809157052FEF2E
:101010003FEF981748F4E92FF0E0ED57FB4F2081A0
:1010200030E09F5F90935805C9010895809157055E
:1010300090915805891B990B0895CF92DF92EF92FA
:10104000FF920F931F93CF93DF937C01CB018A0113
:1010500020912F05222389F0EB016B01C40ED51ED0
:10106000CC15DD0569F06991D701ED91FC910190F6
:10107000F081E02DC7010995F3CF642F0E9485060A
:10108000C801DF91CF911F910F91FF90EF90DF90FA
:10109000CF900895CF93DF931F92CDB7DEB76983CA
:1010A00020912F052223F9F020915505203258F088
:1010B00021E030E0FC013383228390E080E00F9058
:1010C000DF91CF91089580915605E82FF0E0E05D23
:1010D000FA4F998190838F5F8093560580935505D1
:1010E00081E090E0ECCF61E0CE0101960E948506A0
:1010F000F7CFFC0183858F3F19F061E00C94D30397
:101100000895FC0180819181892B39F0A281B381FE
:101110009C9111968C919CBD8DBD83858F3F19F05C
:1011200060E00C94D3030895AF92BF92CF92DF9208
:10113000EF92FF920F931F93CF93DF93EC0188817F
:101140009981892B89F06EBD0DB407FEFDCFBEB429
:101150008B2DDF91CF911F910F91FF90EF90DF903A
:10116000CF90BF90AF9008958885998511E0892B25
:1011700009F010E8AA24A394862F812309F0A12C5A
:10118000062F2C813D814E815F8160E271EA87E00C
:1011900090E00E94972EF22EB02EE12CC22ED12C80
:1011A000FF2019F0C6010E9450048A85877F09F04C
:1011B00042C08D858F3F89F0902F912381E009F403
:1011C00080E08A1551F0EF85F8898F89992369F1BC
:1011D0009081892B8083AA24A394E989FA8980814C
:1011E000998D892B8083FF2019F0C6010E9450043D
:1011F0008E858F3F39F0EB89FC898081988D89231A
:1012000009F0E12AE989FA899081898D80958923FD
:1012100080838E858F3F09F0BE2C88859985892B28
:10122000B9F5110F1111BCCF93CF9081809589230F
:101230008083A12CD2CFE989FA898081998D892B6D
:101240008083FF2019F0C6010E9450048D858F3FD6
:1012500049F0EF85F8898F89902F9123A9F090812B
:10126000892B8083E989FA899081898D80958923EA
:1012700080838E858F3F69F2EB89FC898081988D10
:10128000892339F2E12AC5CF908180958923E9CF5E
:101290001695C8CF8F929F92AF92BF92CF92DF9256
:1012A000EF92FF920F931F93CF93DF937C014B013B
:1012B0006A01B22EA32E0E948108E401C80CD91C39
:1012C000CC15DD0569F4CB2DDA2D0C0F1D1FC017D1
:1012D000D10759F06FEFC7010E9494088993F7CFA7
:1012E0006991C7010E949408EBCFC7010E94790859
:1012F00081E0DF91CF911F910F91FF90EF90DF90F0
:10130000CF90BF90AF909F908F9008958F929F92B3
:10131000AF92BF92CF92DF92EF92FF920F931F9303
:10132000CF93DF937C01B62EA72E6A0149010E945C
:101330008108E401080D191DC017D10761F4CB2DF8
:10134000DA2DCC0EDD1ECC15DD0551F06991C701FB
:101350000E949408F8CF6991C7010E949408ECCFCD
:10136000C7010E94790881E0DF91CF911F910F9111
:10137000FF90EF90DF90CF90BF90AF909F908F90B5
:1013800008951F93CF93DF93EA01122FDC0111968A
:101390008D919C91DC01ED91FC910280F381E02D17
:1013A0000995C817D90729F4812F0E94040791E0F5
:1013B000811190E0892FDF91CF911F910895CF92F5
:1013C000DF92EF92FF920F931F93CF93DF9300D0A2
:1013D000CDB7DEB7FC014787508B618B728B82855E
:1013E000882371F14487452F562F672F772788234D
:1013F00049F143877F018BE0E80EF11C96818781DC
:1014000099838A83C080D180C114D10409F443C078
:10141000018510E098012E5F3F4FD60114968D9103
:101420009C918217930780F480E00F900F90DF91DA
:10143000CF911F910F91FF90EF90DF90CF90089583
:101440004387D1CF4487D6CFF60181819281208115
:1014500031E030932F0520935005109256051092DD
:1014600055050115110541F421E042E050E0B701B6
:10147000C6010E94C109D9CFDC01ED91FC91028027
:10148000F381E02DA801BE016F5F7F4F099508171A
:10149000190751F6E9CFA281B381109729F224816F
:1014A0003581018510E02330310579F48E7F898301
:1014B0009A830F5F1F4F9E012F5F3F4F42E050E026
:1014C000B701CD010E948609B0CF2115310519F46D
:1014D0009F779983F0CF2230310511F49068F9CFCE
:1014E0002130310541F79F779064F3CFCF93DF939D
:1014F000EC018B818823A1F0888191E090932F05E6
:1015000080935005109256051092550581E00E9477
:10151000040791E0811190E0892FDF91CF91089528
:101520000E94D70681E08B83CE010E94760A982F15
:101530008111E2CFF1CF2091320630913306281786
:10154000390771F49091E7048091E804981741F00D
:10155000E091E704F0E0E350FC4F808190E00895D3
:101560008FEF9FEF0895EF92FF920F931F93CF930A
:10157000DF93DC015C96ED90FC905D97E114F10443
:1015800079F481E090E013969C938E93129790E00B
:1015900080E0DF91CF911F910F91FF90EF90089520
:1015A0005196ED91FC91529750968C915097982FAF
:1015B00090950FB75E962C915E97122F127021FDB9
:1015C0006095F8942081112319F1282B2083E701DD
:1015D0002197F1F728E0462F50E0308160FF1AC0D4
:1015E000382B3083E7012197F1F7BA01759567959C
:1015F000215089F7112381F08081892380830FBFD7
:101600005C968D919C910197F1F781E090E0C1CFBC
:101610002923DCCF3923E5CF9081892BEFCF20918F
:101620003206309133062817390771F48091E804A7
:101630002091E70490E080589F4F821B910960E859
:1016400070E00E94462F089590E080E00895209178
:1016500032063091330628173907B9F49091E70420
:101660008091E804981789F0E091E704F0E0E350F6
:10167000FC4F80812091E70430E02F5F3F4F2F77B0
:1016800033272093E70490E008958FEF9FEF0895AC
:1016900090E080E008952F923F924F925F926F9278
:1016A0007F928F929F92AF92BF92CF92DF92EF92F2
:1016B000FF920F931F93CF93DF9300D000D000D001
:1016C000CDB7DEB77C017C836B830B969E838D83C5
:1016D000D70116969C91169717968C911797998318
:1016E0008A836D907C9011976114710409F44CC148
:1016F00019964C9150E0F3018481958184179507E8
:10170000A8F0808191E090932F058093500510926E
:1017100056051092550520E0BE016F5F7F4FC30153
:101720000E94C109D12CC12C81111AC080E02696DB
:101730000FB6F894DEBF0FBECDBFDF91CF911F91E2
:101740000F91FF90EF90DF90CF90BF90AF909F9060
:101750008F907F906F905F904F903F902F90089563
:10176000D30114968D919C9102E010E00C191D0993
:101770008017910708F48C01F30150800E945904EE
:101780004B015C0180912905811176C0B02EF0E2F9
:10179000F01710F440E2B42E81E08093290521E097
:1017A00082E090E0801B910BC816D90608F420E077
:1017B000209328059FEF90932705109226058FEF21
:1017C0008B0D80932505A1E0A0930405809104056D
:1017D000550C582A5092040580910305813009F078
:1017E00093C0109203050E9459041B012C018091A3
:1017F00004058093BB0080912B0590912C05A0914E
:101800002D05B0912E05892B8A2B8B2BA1F00E94E0
:10181000590420912B0530912C0540912D055091B4
:101820002E05621973098409950926173707480799
:10183000590708F442C08091BC0083FDD8CFB5ECB5
:10184000B093BC000E9459041B012C018091290512
:10185000813009F45DC0809126058B1510F4B0909D
:101860002605A5E0B5E0E3E8F4E080E08B1551F152
:101870009D9191938F5FFACF80912B0590912C05CC
:10188000A0912D05B0912E05892B8A2B8B2B09F465
:1018900079CF0E94590420912B0530912C0540915D
:1018A0002D0550912E05681979098A099B0926177B
:1018B00037074807590708F065CF80912A050E942D
:1018C000EE06B12C10925805B0925705B0161106CD
:1018D00009F02CCF8D809E808C0C9D1C5401C5017D
:1018E0008819990980179107A8F5D30111968D9150
:1018F0009C91DC01ED91FC910284F385E02D09952A
:10190000F50181935F01EBCFE5EEE093BC009ACF48
:1019100080912B0590912C05A0912D05B0912E055D
:10192000892B8A2B8B2B09F491CF0E94590420918B
:101930002B0530912C0540912D0550912E056219F3
:10194000730984099509261737074807590708F0CE
:101950007DCFB3CFC00ED11EF2E0CF16D10408F474
:10196000FFCEF7018285811142C0848590E0982FD7
:101970008827AB81BC8111969C938E932385822B03
:101980008D939C9381E0D3CE1296ED91FC911397A9
:10199000309709F4CBCE14962D913C91159719965A
:1019A0004C9150E02330310591F4816089839A8312
:1019B0004F5F5F4F02E010E02D813E81BE016F5FFF
:1019C0007F4FCF010E944A098111CBCFB0CE2115A4
:1019D000310519F490689983EDCF2230310511F467
:1019E0009F77F9CF2130310529F7906CF4CF8385AB
:1019F00090E0982F8827AB81BC8111969C938E93A1
:101A00002485BDCFFB0101900020E9F73197AF019C
:101A1000461B570BDC01ED91FC910280F381E02D18
:101A2000099464E372E00C94020DCF93DF93BC0140
:101A300089E595E00E940605EC0189E595E00E94A4
:101A4000110D8C0F9D1FDF91CF9108950F931F9360
:101A5000CF93DF93EC010E94E9048C01CE010E9438
:101A6000110D800F911FDF91CF911F910F9108955C
:101A70000F931F93CF93DF932091EA04222349F120
:101A80008A01EC0163307105C1F064307105C1F069
:101A90006230710531F466E971E089E595E00E94F4
:101AA0000605BE0189E595E00130110561F0DF9181
:101AB000CF911F910F910C94E9046FE871E0EDCF85
:101AC00068E871E0EACFDF91CF911F910F910C94FC
:101AD000260DDF91CF911F910F9108950F931F93C2
:101AE000CF93DF932091E9042223E9F08A01EC01EE
:101AF0006230710531F462E671E089E595E00E949B
:101B00000605BE0189E595E00130110531F0DF9150
:101B1000CF911F910F910C94E904DF91CF911F9108
:101B20000F910C94260DDF91CF911F910F91089585
:101B30008F929F92AF92BF92EF92FF920F931F935B
:101B4000CF93DF93CDB7DEB7A1970FB6F894DEBF82
:101B50000FBECDBF7C01FA01CB0119A2223008F4DF
:101B60002AE08E010F5D1F4F822E912CB12CA12CEB
:101B7000BF01A50194010E94972EF901CA016A30A4
:101B80000CF5605DD8016E938D01232B242B252B42
:101B900079F790E080E0109721F0BD01C7010E9425
:101BA000020DA1960FB6F894DEBF0FBECDBFDF9138
:101BB000CF911F910F91FF90EF90BF90AF909F90AA
:101BC0008F900895695CDECF0F931F93CF93DF93BF
:101BD000EC010E94020D8C01CE010E94110D800FBC
:101BE000911FDF91CF911F910F910895CF93DF93B4
:101BF000FC01C081D181209761F08991882349F04F
:101C0000082E000C990B0E945631FE0131978083FB
:101C1000F4CFDF91CF910895CF93DF93FC0124811E
:101C200035814217530788F4C081D181FB0160815F
:101C30007181CE01840F951F0E948631009729F093
:101C40008C1B9D0BDF91CF9108958FEF9FEFFACF03
:101C500050E040E00C940C0E0F931F93CF93DF9352
:101C60008C01EB01FC01808191810097E1F068819A
:101C7000798161157105A9F0428153812C813D81E3
:101C80004217530770F00E9470318C819D81F801DA
:101C9000958384831D821C82DF91CF911F910F91C8
:101CA00008950E94103088819981F8019183808382
:101CB0008A819B81938382838C819D819583848398
:101CC000198218821B821A82E5CFCF93DF93EC0131
:101CD00088819981009711F00E9410301982188232
:101CE0001D821C821B821A82DF91CF910895FC0114
:101CF00080819181009711F00C94103008950F931A
:101D00001F93CF93DF93EC0188819981009759F05D
:101D10002A813B812617370730F081E0DF91CF9190
:101D20001F910F9108958B016F5F7F4F0E94993033
:101D3000009759F0998388831B830A832C813D8106
:101D4000232B59F7FC011082E8CF80E0E7CF0F93F7
:101D50001F93CF93DF938C010E948A2A0097F1F0A2
:101D6000C091BD06D091BE06C80FD91FBE0189EB38
:101D700096E00E947F0E882391F02091B906309161
:101D8000BA068091BD069091BE06B801820F931FDE
:101D90000E94832AD093BE06C093BD0681E0DF91E6
:101DA000CF911F910F910895EF92FF920F931F9380
:101DB000CF93DF936115710541F480E0DF91CF91FE
:101DC0001F910F91FF90EF90089541155105B1F0CB
:101DD0007B01EC010C811D81040F151FB8010E94CD
:101DE0007F0E882351F3288139818C819D81B70131
:101DF000820F931F0E9470311D830C8381E0DECF20
:101E0000CF93DF93EC01FB014481558160817181A7
:101E10000E94D40E811103C0CE010E94650ECE0136
:101E2000DF91CF910895FB014481558160817181DB
:101E30000C94D40EEF92FF920F931F93CF93DF93E6
:101E4000EC018B01CB010E948A2A7C01BC01CE01EE
:101E50000E947F0E81110BC0CE010E94650ECE0143
:101E6000DF91CF911F910F91FF90EF900895FD8228
:101E7000EC82B801888199810E94832AF0CFFC010D
:101E80001182108213821282158214820C941A0F0E
:101E9000CF93DF9300D000D000D0CDB7DEB760E0A5
:101EA0008091D7010E94D3036BE676E0CE010196C4
:101EB0000E943F0F41E050E062E070E0CE010196E9
:101EC0000E94380DCE0101960E94770E26960FB61D
:101ED000F894DEBF0FBECDBFDF91CF9108950F9371
:101EE0001F93CF93DF9300D000D000D0CDB7DEB7E3
:101EF0008C0110921E066EEB75E0CE0101960E94D9
:101F00003F0FBE016F5F7F4FC8010E94280E8C01FA
:101F1000CE0101960E94770E101611061CF481E086
:101F200080931E0680911E0626960FB6F894DEBF9B
:101F30000FBECDBFDF91CF911F910F910895CF9329
:101F4000DF9300D000D000D0CDB7DEB761E0809144
:101F5000D7010E94D30365E073E0CE0101960E9491
:101F60003F0F41E050E062E070E0CE0101960E9438
:101F7000380DCE0101960E94770E26960FB6F89482
:101F8000DEBF0FBECDBFDF91CF910895EF92FF92DC
:101F90000F931F93CF93DF93EC017B018A01BA016A
:101FA0000E947F0E81110BC0CE010E94650ECE01F2
:101FB000DF91CF911F910F91FF90EF9008951D83B6
:101FC0000C83B701888199810E947031F0CFFB01A9
:101FD00001900020E9F73197AF01461B570B0C9495
:101FE000C60FEF92FF920F931F93CF93DF93CDB75E
:101FF000DEB7A1970FB6F894DEBF0FBECDBF7C0150
:10200000CB01BA01F701118210821382128215826C
:1020100014828E010F5F1F4F22E044E00E94C1290D
:10202000009789F0BC01C7010E94E70FA1960FB687
:10203000F894DEBF0FBECDBFDF91CF911F910F91FE
:10204000FF90EF900895C7010E94650EEFCF0F93A8
:102050001F93CF93DF93CDB7DEB761970FB6F89498
:10206000DEBF0FBECDBF8C01CB01F8011182108203
:1020700013821282158214824AE0BE016F5F7F4F85
:102080000E94A92ABE016F5F7F4FC8010E94E70F1F
:1020900061960FB6F894DEBF0FBECDBFDF91CF9132
:1020A0001F910F9108950F931F93CF93DF93CDB797
:1020B000DEB762970FB6F894DEBF0FBECDBF8C01BE
:1020C000CB01F801118210821382128215821482D0
:1020D0004AE0BE016F5F7F4F0E94932ABE016F5F8F
:1020E0007F4FC8010E94E70F62960FB6F894DEBFDB
:1020F0000FBECDBFDF91CF911F910F9108950F9328
:102100001F93CF93DF93CDB7DEB729970FB6F8941F
:10211000DEBF0FBECDBF8C01862FF8011182108269
:10212000138212821582148250E0BE016F5F7F4FCE
:1021300090E00E949E2ABE016F5F7F4FC8010E94FF
:10214000E70F29960FB6F894DEBF0FBECDBFDF9123
:10215000CF911F910F910895CF93DF9300D0CDB70A
:10216000DEB7FC0111821082138212821582148262
:1021700069831A82BE016F5F7F4F0E94E70F0F9045
:102180000F90DF91CF910895CF93DF93EC01FB0186
:102190008617970749F0608171816115710541F0DB
:1021A000448155810E94C60FCE01DF91CF910895E1
:1021B0000E94650EF9CFFC011182108213821282F7
:1021C000158214820C94C4100F931F93CF93DF9346
:1021D00000D000D000D0CDB7DEB78C0166E372E04E
:1021E00084E396E00E94E70F68EE73E080E090E001
:1021F0000E947E0469EA75E0CE0101960E943F0FBD
:1022000050E040E062E070E0CE0101960E946E0D69
:10221000CE0101960E94770E80E496E00E940F0B9B
:10222000BC01CE0101960E94531050E040E070E0E6
:1022300060E0CE0101960E946E0DCE0101960E94D3
:10224000770E80E496E00E940F0B892B89F080E4E2
:1022500096E00E94270B682FCE0101960E94AC10D9
:10226000BE016F5F7F4F84E396E00E94130FE5CFBE
:1022700064EA75E0CE0101960E943F0F50E040E015
:1022800070E060E0CE0101960E946E0DCE010196D5
:102290000E94770E6091380670913906CE01019642
:1022A0000E94271041E050E070E060E0CE0101960E
:1022B0000E946E0DCE0101960E94770E64E376E0D7
:1022C000C8010E94DB10C80126960FB6F894DEBF45
:1022D0000FBECDBFDF91CF911F910F9108951F9336
:1022E000CF93DF9300D000D000D0CDB7DEB7162F4C
:1022F000BC01CE0101960E94DB10BE016F5F7F4FD3
:1023000080E496E00E94260DCE0101960E94770E91
:1023100068EE73E080E090E00E947E04CE010196BA
:102320000E94E410BE016F5F7F4F84E396E00E943D
:102330002C0ECE0101960E94770E112321F167E940
:1023400075E0CE0101960E943F0F50E040E062E050
:1023500070E0CE0101960E946E0DCE0101960E94A2
:10236000770E64E376E0CE0101960E94DB1041E037
:1023700050E070E060E0CE0101960E946E0DCE014B
:1023800001960E94770E64E376E0CE0101960E94EA
:10239000DB10CE0101960E946F0F80931E06CE01C6
:1023A00001960E94770E80911E0626960FB6F8942D
:1023B000DEBF0FBECDBFDF91CF911F910895FC010D
:1023C000118210821382128215821482FB01019005
:1023D0000020E9F73197AF01461B570B0C94C60F4D
:1023E000FF920F931F93CF93DF9300D000D000D0C4
:1023F000CDB7DEB78C01F62E66E372E00E94DF11E6
:102400008FE08F1528F067E372E0C8010E94E70FA4
:1024100040E16F2DCE0101960E947F10BE016F5FDB
:102420007F4FC8010E94130FCE0101960E94770EC4
:10243000C8010E94F60DC80126960FB6F894DEBFBB
:102440000FBECDBFDF91CF911F910F91FF900895E7
:102450000F931F93CF93DF9300D000D000D0CDB760
:10246000DEB7E0918104F0918204E830F10508F0D4
:1024700090C0E35CFD4E0C945A2F4512C9124C12C9
:1024800088128B12A412B712C61261EE71E089EBAA
:1024900096E00E941A0F1DC064ED71E089EB96E092
:1024A0000E941A0F6091FF0470910005CE01019601
:1024B0000E942710BE016F5F7F4F89EB96E00E945C
:1024C000130FCE0101960E94770E8FEC91E00E94CF
:1024D000A70E0091BD061091BE0610920205109243
:1024E00001058091010590910205800F911F4E9783
:1024F00008F052C08DE991E00E94A70E809101057D
:102500009091020501969093020580930105E9CF11
:1025100069EC71E0BCCF68EB71E089EB96E00E945A
:102520001A0F4AE06091D601CE0101960E947F10F9
:10253000BE016F5F7F4F89EB96E00E94130FCE01C3
:1025400001960E94770EC5CF64EB71E089EB96E0AF
:102550000E941A0F4091FA045091FB046091FC0410
:102560007091FD04CE0101960E94F10FE1CF60EB66
:1025700071E089EB96E00E941A0F40917D04509122
:102580007E0460917F0470918004ECCF6DEA71E06D
:102590007ECF6FE971E07BCF69EB76E0CE010196EB
:1025A0000E94DB1041E050E063E070E0CE01019654
:1025B0000E94380DCE0101960E94770E66E372E00C
:1025C000CE0101960E94DF1141E050E070E060E032
:1025D000CE0101960E94380DCE0101960E94770E21
:1025E0006091B9067091BA066115710521F086EF08
:1025F00095E00E94020D26960FB6F894DEBF0FBE3E
:10260000CDBFDF91CF911F910F910895AF92BF92EF
:10261000CF92DF92EF92FF920F931F93CF93DF93AE
:102620006C015B017A0189012417350720F48F2D95
:102630007901042F182F66E372E0C6010E94DF11B2
:10264000D5011496CD91DC91EC16FD06E0F40C1743
:102650001D0708F4E801D501ED91FC911197EC0FED
:10266000FD1F108110826D917C916E0D7F1DC60142
:1026700061157105A1F00E94E70FF501808191813C
:10268000C80FD91F1883C601DF91CF911F910F91F9
:10269000FF90EF90DF90CF90BF90AF9008950E9491
:1026A000650EEBCFCF92DF92EF92FF920F931F93C5
:1026B000CF93DF936C01EB017A01022F1092210678
:1026C0001092200650E040E0B701CE010E940C0EAF
:1026D000909323068093220610921F0610911F06E6
:1026E00020912206309123061017C0F4A901B701EA
:1026F000CE010E940C0E9093210680932006AC011F
:102700004F5F5F4FB701CE010E940C0E90932306DE
:10271000809322061F5F10931F06E0CF4091200692
:10272000509121064F5F5F4FBE01C6010E94061304
:10273000C601DF91CF911F910F91FF90EF90DF9035
:10274000CF900895EF92FF920F931F93CF93DF9353
:10275000CDB7DEB72C970FB6F894DEBF0FBECDBF56
:102760008C010E94F60D63E073E0CE0101960E9499
:102770003F0FBE016F5F7F4FC8010E94280EF80116
:1027800024813581AC014F5F5F4FB801CE010796C0
:102790000E940613BE01695F7F4F8FEB96E00E9497
:1027A0002C0ECE0107960E94770ECE0101960E9454
:1027B000770EF80184819581892B09F46FC381E03C
:1027C00090E090938204809381046DEF72E0CE01DB
:1027D00001960E943F0FBE016F5F7F4FC8010E94AC
:1027E000280E7C01CE0101960E94770EF7FC30C0C6
:1027F0006BEE72E0CE0101960E943F0F41E050E087
:1028000064E070E0CE0101960E94380DCE01019681
:102810000E94770E65ED72E0CE0101960E943F0F97
:1028200041E050E064E070E0CE0101960E94380D76
:10283000CE0101960E94770E81E090E09093D50141
:102840008093D40183E090E090938204809381048C
:1028500061ED72E0CE0101960E943F0FBE016F5FF5
:102860007F4FC8010E94280E7C01CE0101960E9474
:10287000770EF7FC2AC067EC72E0CE0101960E9449
:102880003F0F50E040E064E070E0CE0101960E940E
:10289000380DCE0101960E94770E6FEB76E0CE01E7
:1028A00001960E94DB1041E050E070E060E0CE0154
:1028B00001960E94380DCE0101960E94770E6FEBB3
:1028C00076E087EA96E00E94C41063EC72E0CE01E5
:1028D00001960E943F0FBE016F5F7F4FC8010E94AB
:1028E000280E7C01CE0101960E94770EF7FC2AC0CB
:1028F00069EB72E0CE0101960E943F0F50E040E08C
:1029000064E070E0CE0101960E94380DCE01019680
:102910000E94770E6FEB76E0CE0101960E94DB10ED
:1029200041E050E070E060E0CE0101960E94380D79
:10293000CE0101960E94770E6FEB76E081EA96E079
:102940000E94C41063EB72E0CE0101960E943F0F1B
:10295000BE016F5F7F4FC8010E94280E7C01CE012F
:1029600001960E94770EF7FC2AC067EA72E0CE015A
:1029700001960E943F0F50E040E064E070E0CE011D
:1029800001960E94380DCE0101960E94770E6FEBE2
:1029900076E0CE0101960E94DB1041E050E070E04D
:1029A00060E0CE0101960E94380DCE0101960E9492
:1029B000770E6FEB76E08BE996E00E94C41060EA38
:1029C00072E0CE0101960E943F0FBE016F5F7F4F04
:1029D000C8010E94280E7C01CE0101960E94770E4C
:1029E000F7FC2AC063E972E0CE0101960E943F0F16
:1029F00050E040E064E070E0CE0101960E94380DA6
:102A0000CE0101960E94770E6FEB76E0CE01019623
:102A10000E94DB1041E050E070E060E0CE010196E2
:102A20000E94380DCE0101960E94770E6FEB76E082
:102A300085E996E00E94C4106CE872E0CE01019630
:102A40000E943F0FBE016F5F7F4FC8010E94280E9A
:102A50007C01CE0101960E94770EF7FC2AC06FE739
:102A600072E0CE0101960E943F0F50E040E064E02A
:102A700070E0CE0101960E94380DCE0101960E94B1
:102A8000770E6FEB76E0CE0101960E94DB1041E0FD
:102A900050E070E060E0CE0101960E94380DCE015A
:102AA00001960E94770E6FEB76E08FE896E00E9429
:102AB000C41068E772E0CE0101960E943F0FBE018C
:102AC0006F5F7F4FC8010E94280E7C01CE010196E6
:102AD0000E94770EF7FC2AC06BE672E0CE010196E9
:102AE0000E943F0F50E040E064E070E0CE010196AC
:102AF0000E94380DCE0101960E94770E6FEB76E0B2
:102B0000CE0101960E94DB1041E050E070E060E0F1
:102B1000CE0101960E94380DCE0101960E94770EDB
:102B20006FEB76E089E896E00E94C41065E672E0FB
:102B3000CE0101960E943F0FBE016F5F7F4FC8011B
:102B40000E94280E7C01CE0101960E94770EF7FCB0
:102B50002AC069E572E0CE0101960E943F0F50E065
:102B600040E064E070E0CE0101960E94380DCE0195
:102B700001960E94770E6FEB76E0CE0101960E94DF
:102B8000DB1041E050E070E060E0CE0101960E9471
:102B9000380DCE0101960E94770E6FEB76E083E848
:102BA00096E00E94C41064E572E0CE0101960E9496
:102BB0003F0FBE016F5F7F4FC8010E94280E7C014E
:102BC000CE0101960E94770EF7FC2AC069E472E0FC
:102BD000CE0101960E943F0F50E040E064E070E0BB
:102BE000CE0101960E94380DCE0101960E94770E0B
:102BF0006FEB76E0CE0101960E94DB1041E050E0E1
:102C000070E060E0CE0101960E94380DCE01019681
:102C10000E94770E6FEB76E08DE796E00E94C4107D
:102C200064E472E0CE0101960E943F0FBE016F5F27
:102C30007F4FC8010E94280E7C01CE0101960E94A0
:102C4000770EF7FC2AC069E372E0CE0101960E947C
:102C50003F0F50E040E064E070E0CE0101960E943A
:102C6000380DCE0101960E94770E6FEB76E0CE0113
:102C700001960E94DB1041E050E070E060E0CE0180
:102C800001960E94380DCE0101960E94770E6FEBDF
:102C900076E087E796E00E94C41064E372E0CE011C
:102CA00001960E943F0FBE016F5F7F4FC8010E94D7
:102CB000280E7C01CE0101960E94770EF7FC2AC0F7
:102CC00069E272E0CE0101960E943F0F50E040E0C1
:102CD00064E070E0CE0101960E94380DCE010196AD
:102CE0000E94770E6FEB76E0CE0101960E94DB101A
:102CF00041E050E070E060E0CE0101960E94380DA6
:102D0000CE0101960E94770E6FEB76E081E796E0A8
:102D10000E94C41062E272E0CE0101960E943F0F51
:102D2000BE016F5F7F4FC8010E94280E7C01CE015B
:102D300001960E94770EF7FC2AC065E172E0CE0191
:102D400001960E943F0F50E040E064E070E0CE0149
:102D500001960E94380DCE0101960E94770E6FEB0E
:102D600076E0CE0101960E94DB1041E050E070E079
:102D700060E0CE0101960E94380DCE0101960E94BE
:102D8000770E6FEB76E08BE696E00E94C4106CE065
:102D900072E0CE0101960E943F0FBE016F5F7F4F30
:102DA000C8010E94280E7C01CE0101960E94770E78
:102DB000F7FC2AC060E072E0CE0101960E943F0F4E
:102DC00050E040E064E070E0CE0101960E94380DD2
:102DD000CE0101960E94770E6FEB76E0CE01019650
:102DE0000E94DB1041E050E070E060E0CE0101960F
:102DF0000E94380DCE0101960E94770E6FEB76E0AF
:102E000085E696E00E94C41067EF71E0CE0101965E
:102E10000E943F0FBE016F5F7F4FC8010E94280EC6
:102E20008C01CE0101960E94770E17FD2AC06BEE31
:102E300071E0CE0101960E943F0F50E040E064E057
:102E400070E0CE0101960E94380DCE0101960E94DD
:102E5000770E6FEB76E0CE0101960E94DB1041E029
:102E600050E070E060E0CE0101960E94380DCE0186
:102E700001960E94770E6FEB76E08FE596E00E9458
:102E8000C4102C960FB6F894DEBF0FBECDBFDF91F5
:102E9000CF911F910F91FF90EF90089510928204AF
:102EA0001092810492CCCF93DF9300D000D000D059
:102EB000CDB7DEB766E372E08FEB96E00E94E70FD6
:102EC00090915705809158059817A9F086EF95E0E5
:102ED0000E940308682FCE0101960E94AC10BE012B
:102EE0006F5F7F4F8FEB96E00E94130FCE0101962C
:102EF0000E94770EE5CF6FEB76E0CE0101960E943F
:102F0000DB1041E050E064E070E0CE0101960E94E9
:102F1000380DCE0101960E94770E8CE291E00E945E
:102F2000B1046FEB76E0CE0101960E94DB10CE017A
:102F300001960E94A213CE0101960E94770E26965A
:102F40000FB6F894DEBF0FBECDBFDF91CF910895CD
:102F50000F931F93CF93DF93CDB7DEB76E970FB666
:102F6000F894DEBF0FBECDBF67E875E0CE010196D5
:102F70000E943F0F61E0CE0101960E946F11CE01C9
:102F800001960E94770E64EF71E080E090E00E946D
:102F90007E0466E372E0CE0149960E94DF1166E38B
:102FA00072E0CE0143960E94DF1166E372E0CE012B
:102FB0000D960E94DF1166E372E0CE0107960E9433
:102FC000DF1169E372E080E496E00E94E40D68EEB0
:102FD00073E080E090E00E947E04CE0101960E94A2
:102FE000E410BE016F5F7F4F84E396E00E942C0ED9
:102FF000CE0101960E94770E64E376E0CE01019641
:103000000E94DB1041E050E070E060E0CE010196EC
:103010000E946E0DCE0101960E94770E0AE010E02C
:10302000C8010E94BD03FC01808189831A8241E0AE
:1030300050E0BE016F5F7F4FCE0143960E94D40ED9
:103040000F5F1F4F0F30110559F78F89988D892B0E
:1030500009F45BC00B891C8961E472E0C8010E941D
:103060006731892B09F04FC167E472E0CE01019608
:103070000E94DF1141E050E070E060E0CE01019677
:103080000E946E0DCE0101960E94770E6EE275E0F1
:10309000CE0101960E943F0F61E0CE0101960E9491
:1030A0006F11CE0101960E94770E68EE73E080E00A
:1030B00090E00E947E0467E175E0CE0101960E94D7
:1030C0003F0F61E0CE0101960E946F11CE01019683
:1030D0000E94770E60ED77E080E090E00E947E0431
:1030E00060E175E0CE0101960E943F0F61E0CE01E4
:1030F00001960E946F11CE0101960E94770E68EE34
:1031000073E080E090E00E947E04CE0107960E946A
:10311000770ECE010D960E94770EBE016D5E7F4F39
:10312000CE0149960E942C0ECE0143960E94770E46
:1031300064E872E0CE0107960E94DF11BE01675E6F
:103140007F4FCE0107960E94000FBC01CE01019671
:103150000E94DB1041E050E070E060E0CE0101969B
:103160000E946E0DCE0101960E94770ECE01079649
:103170000E94770E6CE775E0CE0101960E943F0F2A
:1031800061E0CE0101960E946F11CE0101960E946E
:10319000770E68EE73E080E090E00E947E0469E8BC
:1031A00072E080E496E00E94E40D68EE73E080E057
:1031B00090E00E947E04CE0101960E94E410BE01C0
:1031C0006F5F7F4F84E396E00E942C0ECE01019644
:1031D0000E94770E64E376E0CE0101960E94DB1038
:1031E00041E050E070E060E0CE0101960E946E0D7B
:1031F000CE0101960E94770E84E190E00E94BD030B
:10320000FC016081CE0101960E94AC1041E050E0CB
:1032100070E060E0CE0101960E946E0DCE01019635
:103220000E94770E69E872E080E496E00E94E40D67
:1032300068EE73E080E090E00E947E04CE0101968B
:103240000E94E410BE016F5F7F4F84E396E00E940E
:103250002C0ECE0101960E94770E64E376E0CE013B
:1032600001960E94DB1041E050E070E060E0CE018A
:1032700001960E946E0DCE0101960E94770E84E1A8
:1032800090E00E94BD03FC016081CE0101960E9486
:10329000AC1041E050E070E060E0CE0101960E9489
:1032A0006E0DCE0101960E94770E84E190E00E949F
:1032B000BD03FC01808181116DC063E972E0CE0124
:1032C00001960E94DF1141E050E070E060E0CE0125
:1032D00001960E946E0DCE0101960E94770E10920B
:1032E0001E0610911E06CE0149960E94770E812F70
:1032F0006E960FB6F894DEBF0FBECDBFDF91CF91B3
:103300001F910F91089564E672E0C8010E94673131
:10331000892B09F0FACE6AE672E0CE0101960E948E
:10332000DF1141E050E070E060E0CE0101960E94C4
:103330006E0DCE0101960E94770E66EF74E0CE010D
:1033400001960E943F0F61E0CE0101960E946F112D
:10335000CE0101960E94770E68EE73E080E090E067
:103360000E947E0462EE74E0CE0101960E943F0F3F
:1033700061E0CE0101960E946F11CE0101960E947C
:10338000770E60ED77E080E090E00E947E046BEDC8
:1033900074E0A8CE64EF71E080E090E00E947E04CB
:1033A00063E775E0CE0101960E943F0F61E0CE0118
:1033B00001960E946F11CE0101960E94770E64EF74
:1033C00071E080E090E00E947E046AE675E0CE0144
:1033D00001960E943F0F61E0CE0101960E946F119D
:1033E000CE0101960E94770E6CED75E080E090E0D2
:1033F0000E947E0466E575E080E496E00E94060582
:1034000063EC72E080E496E00E94020D62E575E0F4
:1034100080E496E00E9406052AE04BE557E060E074
:1034200070E080E496E00E94980D6EED72E080E41A
:1034300096E00E94E40D60ED77E080E090E00E946D
:103440007E04CE0101960E94E410BE016F5F7F4FA3
:1034500084E396E00E942C0ECE0101960E94770E26
:1034600065E475E0CE0101960E943F0F50E040E018
:1034700062E070E0CE0101960E946E0DCE010196D1
:103480000E94770E64E376E0CE0101960E94DB1085
:1034900041E050E070E060E0CE0101960E946E0DC8
:1034A000CE0101960E94770E64E376E0CE0101968C
:1034B0000E94DB10CE0101960E946F0F80931E06C2
:1034C000CE0101960E94770E81E080931E0609CFFF
:1034D00085ED8093BC0080912B0590912C05A091E7
:1034E0002D05B0912E050796A11DB11D23E0B695BF
:1034F000A795979587952A95D1F72091BC0024FD33
:1035000003C010922905089540912B0550912C0578
:1035100060912D0570912E05452B462B472B69F3A5
:103520000097A105B10541F025E12A95F1F70000CA
:103530000197A109B109E1CF80912A050C94EE060B
:10354000CF92DF92EF92FF920F931F93CF93DF936F
:10355000CDB7DEB7A8970FB6F894DEBF0FBECDBFCC
:1035600061E0809100010E94D3030E94D706F09091
:10357000020186E090E00E94742F8C01FC01F08231
:1035800086EF95E092838183138280E290E09583B9
:1035900084830E94D706FF24F394F801F382C801C4
:1035A0000E94760A882371F11BA21CA21DA21EA2F2
:1035B0001D8B0C8B1F8A1E8AFD8E85E090E09B8FF1
:1035C0008A8FFE8E42E0E42EEC8E40E050E160E017
:1035D00070E0CE0144960E94DF09188A198A1A8A7F
:1035E0001B8A1A8309831C821B82FA8618861F8213
:1035F000FB86E9864FE959E360E070E0CE01019671
:103600000E94DF0968EE73E080E090E00E947E0493
:103610001BA21CA21DA21EA21D8B0C8B1F8A1E8A20
:10362000FF24F394FD8E85E0C82ED12CDB8ECA8E4C
:10363000FE8E92E0E92EEC8E40E050E260E070E019
:10364000CE0144960E94DF09188A198A1A8A1B8AB9
:103650001A8309831C821B82FA8618861F82FB86C6
:10366000E9864FE951E060E070E0CE0101960E94EA
:10367000DF09188A198A1A8A1B8A1A8309831C820D
:103680001B82FA8682E090E098878F83FB86E9862A
:10369000BE016C5E7F4FCE0101960E944B0B6C8980
:1036A0007D8923E0769567952A95E1F7660F771F68
:1036B000660F771F072E000C880B990B0E94112DA7
:1036C0002FE632E143E85AE30E94702D6093FA043A
:1036D0007093FB048093FC049093FD041BA21CA236
:1036E0001DA21EA21D8B0C8B1F8A1E8AFD8EDB8ED7
:1036F000CA8EFE8EEC8E40E050E260E070E0CE01BB
:1037000044960E94DF09188A198A1A8A1B8A1A832A
:1037100009831C821B82FA8684E090E098878F835D
:10372000FB86E986BE01695D7F4FCE0101960E944E
:103730004B0B6FA178A5072E000C880B990B0E94EC
:10374000112D20E030E040EA51E40E94C82E609341
:103750007D0470937E0480937F04909380040E9484
:10376000AC0660E0809100010E94D3034091FA040E
:103770005091FB046091FC047091FD04CE01019610
:103780000E94F10FBE016F5F7F4F83EB96E00E94B6
:103790002C0ECE0101960E94770E40917D0450912F
:1037A0007E0460917F0470918004CE0101960E9496
:1037B000F10FBE016F5F7F4F8DEA96E00E942C0EE5
:1037C000CE0101960E94770E67E771E0CE01019667
:1037D0000E943F0F50E040E062E070E0CE010196B1
:1037E0000E94380DCE0101960E94770E63EB76E0C1
:1037F000CE0101960E94DB1050E040E070E060E0F6
:10380000CE0101960E94380DCE0101960E94770EDE
:103810006BE671E0CE0101960E943F0F50E040E060
:1038200070E060E0CE0101960E94380DCE01019655
:103830000E94770E6DEA76E0CE0101960E94DB10C1
:1038400041E050E070E060E0CE0101960E94380D4A
:10385000CE0101960E94770EC801A8960FB6F89483
:10386000DEBF0FBECDBFDF91CF911F910F91FF90B3
:10387000EF90DF90CF900C941030CF92DF92EF92C8
:10388000FF920F931F93CF93DF93CDB7DEB762976D
:103890000FB6F894DEBF0FBECDBF6B017C018CEB81
:1038A00092E00E94B10468E576E0CE0101960E94A4
:1038B0003F0F41E050E062E070E0CE0101960E94CF
:1038C000380DCE0101960E94770E6CE376E0CE01B2
:1038D00001960E943F0F41E050E062E070E0CE01AF
:1038E00001960E94380DCE0101960E94770E60E08D
:1038F0008DE00E94D3030E94480F6BE276E0CE0178
:1039000001960E943F0F41E050E062E070E0CE017E
:1039100001960E94380DCE0101960E94770E64E652
:1039200070E080E090E00E947E0410920205109208
:10393000010500910105109102058091FF0490910D
:10394000000508171907E0F48091D601882389F053
:1039500030E020E050E040E066E070E08EEF94E080
:103960000E9437060F5F1F4F109302050093010559
:10397000E0CF68EE73E080E090E00E947E04F2CF3A
:1039800081E090E09093D5018093D40163EF75E0DE
:10399000CE0101960E943F0F41E050E062E070E0EE
:1039A000CE0101960E94380DCE0101960E94770E3D
:1039B0000E949F0F68EE73E080E090E00E947E041A
:1039C0000E94A01A0E94480FA70196016091FA0474
:1039D0007091FB048091FC049091FD040E940A2DDB
:1039E00087FF5DC061ED75E0CE0101960E943F0F3B
:1039F00050E040E062E070E0CE0101960E94380D98
:103A0000CE0101960E94770EB701A601CE010D9658
:103A10000E94F10FBE01635F7F4FCE0107960E94A7
:103A2000DB1041E050E060EE72E0CE0107960E94AC
:103A3000D40E811104C0CE0107960E94650EBE010E
:103A4000695F7F4FCE0101960E94DB1041E050E09C
:103A500070E060E0CE0101960E94380DCE01019623
:103A60000E94770ECE0107960E94770ECE010D962A
:103A70000E94770E66E676E686E690E40E943D1C9C
:103A800062960FB6F894DEBF0FBECDBFDF91CF9127
:103A90001F910F91FF90EF90DF90CF90089561EC10
:103AA00075E0CE0101960E943F0F41E050E062E0D8
:103AB00070E0CE0101960E94380DCE0101960E9461
:103AC000770E0E94D70680EE8093BA0088E292E1DA
:103AD0009093F7048093F60483E597E19093F904BB
:103AE0008093F80482E090E09093D5018093D40114
:103AF0000E949F0F80E0C4CF8F929F92AF92BF929F
:103B0000CF92DF92EF92FF920F931F93CF93DF93A9
:103B10007C016B015A01C22FFA0184819581892BA6
:103B200029F462EE72E0CA010E94E70F0C2F10E048
:103B3000F50184819581912C812C0817190708F0D3
:103B400040C066EE72E089E595E00E94020DF50145
:103B50004481558170E060E02AE089E595E00E94AB
:103B6000980D6CEF72E089E595E00E94020D4C2FF4
:103B700050E070E060E02AE089E595E00E94980D51
:103B800089E595E00E94110DCD3030F06EEF72E0C6
:103B900089E595E00E94E40DF501C481D581209767
:103BA00049F51092F003F701EC0DFD1DA0EFB3E015
:103BB000CD01805F93408017910764F58D918193CB
:103BC000F7CFF50184819581801B910B88169906AA
:103BD00058F441E050E067E372E0C5010E94D40E62
:103BE000FFEF8F1A9F0AEDCFB50189E595E00E949E
:103BF000260DCACF0C171D0708F4E801F5016081F6
:103C00007181AE0180EF93E00E947731C051DC4FAB
:103C10001882C9CFDF91CF911F910F91FF90EF9044
:103C2000DF90CF90BF90AF909F908F9008951F929C
:103C30000F920FB60F9211242F933F938F939F9360
:103C4000AF93BF938091ED049091EE04A091EF04A7
:103C5000B091F0043091EC0426E0230F2D3758F595
:103C60000296A11DB11D2093EC048093ED04909366
:103C7000EE04A093EF04B093F0048091F1049091CE
:103C8000F204A091F304B091F4040196A11DB11DBA
:103C90008093F1049093F204A093F304B093F4049E
:103CA000BF91AF919F918F913F912F910F900FBE38
:103CB0000F901F90189529E8230F0396A11DB11DA1
:103CC000D2CF1F920F920FB60F9211242F933F93D2
:103CD0004F935F936F937F938F939F93AF93BF9314
:103CE000EF93FF9389E595E00E94A805FF91EF917E
:103CF000BF91AF919F918F917F916F915F914F9104
:103D00003F912F910F900FBE0F901F9018951F920B
:103D10000F920FB60F9211242F938F939F93EF93CF
:103D2000FF93E0916905F0916A058081E0916F054C
:103D3000F091700582FD1BC09081809172058F5FAC
:103D40008F7320917305821741F0E0917205F0E0C6
:103D5000E75AFA4F958F80937205FF91EF919F91EB
:103D60008F912F910F900FBE0F901F90189580810B
:103D7000F4CF1F920F920FB60F9211248F930FB6AC
:103D8000F894A895809160008861809360001092FB
:103D900060000FBE8F910F900FBE0F901F9018956F
:103DA0001F920F920FB60F9211242F933F934F93B0
:103DB0005F936F937F938F939F93AF93BF93EF9393
:103DC000FF938091B900887F803609F44AC0F0F5EE
:103DD000883209F4A7C018F5803109F49BC0B8F403
:103DE000882309F4F9C0883009F494C0FF91EF9159
:103DF000BF91AF919F918F917F916F915F914F9103
:103E00003F912F910F900FBE0F901F901895883102
:103E100009F488C0803251F78093270514C080349C
:103E200009F49DC040F48033B9F38833F9F68093E8
:103E3000270585ECB0C0803509F485C0883509F4C4
:103E400096C0883499F60E94681AD0CF883909F450
:103E50008CC038F5883729F050F4883611F0803757
:103E600029F683E0809329051092E60457C088382C
:103E700009F47BC0803919F0803809F0B7CF809100
:103E8000E604803208F071C0E091E60481E08E0F14
:103E90008093E6048091BB00F0E0EA53FB4F8083FF
:103EA0003DC0803B39F0E0F4803A09F479C0883AAB
:103EB00009F09CCF84E0809329051092C5041092EC
:103EC000C404E0915305F091540509958091C40410
:103ED00081110FC081E08093C4041092A40409C032
:103EE000803C09F4A6CF883C09F4A3CF883B09F0B5
:103EF0007DCFE091C50481E08E0F8093C504F0E092
:103F0000EC55FB4F80818093BB009091C50480915C
:103F1000C40429C0809104058093BB0085EC809384
:103F2000BC0064CF9091260580912505981758F51F
:103F3000E091260581E08E0F80932605F0E0EB5F8F
:103F4000FA4F8081E9CFE091260581E08E0F8093C2
:103F500026058091BB00F0E0EB5FFA4F80839091E3
:103F60002605809125059817C8F285E8D8CFE091FD
:103F7000260581E08E0F809326058091BB00F0E03E
:103F8000EB5FFA4F80838091280581115CCF81E03F
:103F90008093030584EA8093BC001092290526CF04
:103FA00085EC8093BC00109229058091E604803254
:103FB00030F4E091E604F0E0EA53FB4F10826091A8
:103FC000E60470E0E0915105F091520586EC94E032
:103FD00009951092E6040ACF1092270534CF1F925C
:103FE0000F920FB60F9211242F933F934F935F932D
:103FF0006F937F938F939F93AF93BF93EF93FF93B1
:10400000E0913206F0913306309749F0A685B785E6
:104010008585968D91FF14C09C918923A1F4FF9111
:10402000EF91BF91AF919F918F917F916F915F9130
:104030004F913F912F910F900FBE0F901F901895A9
:104040009C91892361F7A389B4899C918589809586
:1040500089238C93868997890197F1F7608D718DFB
:10406000A685B785558538E020E0CB010197F1F7AB
:10407000822F90E095958795282F4C91452309F044
:104080002068315091F7868D81FD20958091E8045C
:1040900090E001968F7799273091E704381799F0CF
:1040A000A091E804B0E0A350BC4F2C938093E804A7
:1040B000828D938D0197F1F7A389B4898C919589AD
:1040C000892B8C93ACCF868D8160868FF1CF8CE26B
:1040D00096E00E94770E86E296E00E94770E84E1D9
:1040E00096E00E94770E8EE096E00E94770E88E0C0
:1040F00096E00E94770E82E096E00E94770E86E2BC
:1041000092E0909341068093400680913206909110
:1041100033068054964071F4E0915306F0915406B2
:104120009081809155068095892380831092330673
:10413000109232068AE396E00E94770E84E396E0BE
:104140000E94770E8FE596E00E94770E85E696E056
:104150000E94770E8BE696E00E94770E81E796E04C
:104160000E94770E87E796E00E94770E8DE796E033
:104170000E94770E83E896E00E94770E89E896E029
:104180000E94770E8FE896E00E94770E85E996E010
:104190000E94770E8BE996E00E94770E81EA96E006
:1041A0000E94770E87EA96E00E94770E8DEA96E0ED
:1041B0000E94770E83EB96E00E94770E89EB96E0E3
:1041C0000E94770E8FEB96E00E94770E85EC96E0CA
:1041D0000C94770ECF92DF92EF92FF9210925C05D3
:1041E00010925B0598EEC92E93E0D92EE12CF12CAC
:1041F000C0925D05D0925E05E0925F05F092600589
:1042000082E092E090935A058093590585EC90E006
:10421000909366058093650584EC90E09093680523
:104220008093670580EC90E090936A058093690520
:1042300081EC90E090936C0580936B0582EC90E0AC
:1042400090936E0580936D0586EC90E090937005D9
:1042500080936F0510927205109273051092740589
:10426000109275051092F9051092F805C092FA05A2
:10427000D092FB05E092FC05F092FD0584E192E00E
:104280009093F7058093F60566E372E085EC96E07F
:104290000E94DF1166E372E08FEB96E00E94DF116F
:1042A00066E372E089EB96E00E94DF1166E372E05C
:1042B00083EB96E00E94DF1166E372E08DEA96E000
:1042C0000E94DF1166E372E087EA96E00E94DF1148
:1042D00066E372E081EA96E00E94DF1166E372E035
:1042E0008BE996E00E94DF1166E372E085E996E0D3
:1042F0000E94DF1166E372E08FE896E00E94DF1112
:1043000066E372E089E896E00E94DF1166E372E0FE
:1043100083E896E00E94DF1166E372E08DE796E0A5
:104320000E94DF1166E372E087E796E00E94DF11EA
:1043300066E372E081E796E00E94DF1166E372E0D7
:104340008BE696E00E94DF1166E372E085E696E078
:104350000E94DF1166E372E08FE596E00E94DF11B4
:1043600066E372E084E396E00E94DF1166E372E0A8
:104370008AE396E00E94DF111092430610924206F3
:10438000C0924406D0924506E0924606F092470657
:1043900086E292E090934106809340061092570681
:1043A00010925606109259061092580610925B060B
:1043B00010925A0610925D0610925C0660915E069D
:1043C0006E7F6D7F60935E066695617081E0682701
:1043D00089E00E94D30361E089E00E941F04E9EABA
:1043E000F6E0E491E0935006E5E9F6E0E491F0E0D0
:1043F000EE0FFF1FEE57F94F85919491909352065F
:104400008093510660E088E00E941F0480915E0660
:1044100081FD04C061E088E00E94D30388E08093BE
:104420004C06E8EAF6E0E491E0934D06E4E9F6E0B4
:10443000E491F0E0EE0FFF1FE858F94F8591949159
:1044400090934F0680934E0666E372E082E096E01A
:104450000E94DF1166E372E088E096E00E94DF11BF
:1044600066E372E08EE096E00E94DF1166E372E0A0
:1044700084E196E00E94DF1110921F06109221063F
:104480001092200610922306109222061092250602
:104490001092240667E273E086E296E00E94DF1144
:1044A00066E372E08CE296E00E94DF110E942B2A04
:1044B0002EE530E040E050E00E942E2E605E7F4FFF
:1044C0008F4F9F4F6093F301FF90EF90DF90CF905D
:1044D0000895CF93DF93CDB7DEB764970FB6F89406
:1044E000DEBF0FBECDBF789484B5826084BD84B535
:1044F000816084BD85B5826085BD85B5816085BDDF
:1045000080916E00816080936E0010928100809196
:10451000810082608093810080918100816080931E
:104520008100809180008160809380008091B10043
:1045300084608093B1008091B00081608093B0006E
:1045400080917A00846080937A0080917A00826002
:1045500080937A0080917A008E7F80937A00809198
:104560007A00806880937A001092C100E09169051A
:10457000F0916A0582E08083E0916505F09166051F
:104580001082E0916705F091680587E680831092BC
:104590007105E0916D05F0916E0586E08083E091F4
:1045A0006B05F0916C05808180618083E0916B05E3
:1045B000F0916C05808188608083E0916B05F091BB
:1045C0006C05808180688083E0916B05F0916C05BB
:1045D00080818F7D808310925B0610925A06109224
:1045E00059061092580610925706109256068DECF6
:1045F00090E090935D0680935C0690914C06963116
:1046000008F047C025E530E0309357062093560662
:104610002BEC30E0309359062093580620E930E027
:1046200030935B0620935A062091680084E098300E
:1046300048F031E09E3008F430E081E001C0880F9E
:104640003A95EAF7822B809368002DE630E09830A7
:1046500050F02BE630E09E3030F02CE630E0963122
:1046600010F030E020E03093540620935306292FB9
:1046700030E0983008F041C681E001C0880F9A957B
:10468000EAF78093550680915C0690915D0601974C
:10469000F1F780915A0690915B06892B49F1E091E0
:1046A0003206F091330686E0E034F80709F13097DE
:1046B00039F0A389B4899C918589809589238C934D
:1046C00080915E068E7F80935E061092E8041092C1
:1046D000E70480E496E09093330680933206E091FD
:1046E0005306F0915406808190915506892B808362
:1046F000FF24F394F092E90405E010E010931B0608
:1047000000931A0661E085E00E941F0486E090E0B5
:104710009093D8018093D70184E090E090930101B9
:104720008093000161E086E00E941F0461E084E064
:104730000E941F04F092EA04109300050093FF0406
:1047400067E173E08E010F5F1F4FC8010E943F0FAA
:1047500050E040E062E070E0C8010E94380DC801FE
:104760000E94770E6091FF0470910005C8010E94BD
:10477000271050E040E070E060E0C8010E94380D72
:10478000C8010E94770E61E173E0C8010E943F0FEB
:1047900041E050E070E060E0C8010E94380DC801BF
:1047A0000E94770E109203011092040110920501ED
:1047B0001092060160E373E0C8010E943F0F50E0D1
:1047C00040E062E070E0C8010E94380DC8010E941C
:1047D000770E4091030150910401609105017091A1
:1047E0000601C8010E94F10F50E040E070E060E077
:1047F000C8010E94380DC8010E94770E6CE273E078
:10480000C8010E943F0F41E050E070E060E0C80145
:104810000E94380DC8010E94770E69E473E0C80158
:104820000E943F0F41E050E062E070E0C8010E944A
:10483000380DC8010E94770EF092D60180E4809373
:1048400002016DE573E0C8010E943F0F50E040E0B7
:1048500062E070E0C8010E94380DC8010E94770E26
:1048600040E160910201C8010E947F1041E050E0E8
:1048700070E060E0C8010E94380DC8010E94770E08
:1048800066E276E0C8010E94DB102CE0A8016EE031
:1048900070E089ED91E00E947C1DC8010E94770EB6
:1048A00066E276E0C8010E94DB102CE0A80165E119
:1048B00070E087E091E00E947C1DC8010E94770EA5
:1048C00085EB93E00E94150D81E993E00E94150DA0
:1048D00064E373E0CE0109960E94DF1166E276E0A0
:1048E000CE0109960E94000F7C014DE050E063E488
:1048F00073E00E94D40E811103C0C7010E94650EAF
:104900004AE0B80185E090E00E94932AF801019006
:104910000020E9F73197AF01401B510BB801C701E7
:104920000E94D40E811103C0C7010E94650EB70119
:1049300089E595E00E94260DCE0109960E94770E2A
:104940008CE793E00E94150D6091030170910401C2
:1049500080910501909106010E943D1C78EEE72EA2
:1049600073E0F72E44244394512C5CE3852E912C64
:1049700060E0662E60E0762E8091D4019091D501A2
:104980008130910509F0DBC48091EB048F5F809347
:10499000EB040E94A01A0E94480F61E080911A0661
:1049A0000E94D303EEE1F0E0F0932506E0932406A5
:1049B0006AEA74E0C8010E943F0F50E040E062E004
:1049C00070E0C8010E946E0DC8010E94770E6091D0
:1049D000240670912506C8010E94271050E040E08F
:1049E00070E060E0C8010E946E0DC8010E94770E61
:1049F00063EA74E0C8010E943F0F41E050E070E0BC
:104A000060E0C8010E946E0DC8010E94770E80917F
:104A10002406909125068E9DB0018F9D700D9E9D60
:104A2000700D112490E080E00E947E0410921E061A
:104A300060EA74E0C8010E943F0FB80180E496E08C
:104A40000E94260DC8010E94770E64EF71E080E09D
:104A500090E00E947E04C8010E94E410B80184E343
:104A600096E00E942C0EC8010E94770E64E376E067
:104A7000C8010E94DB10C8010E946F0F80931E06C0
:104A8000C8010E94770E8091EB04813308F4A3C122
:104A900061E573E089E595E00E94E40D90922506BA
:104AA0008092240663E974E0C8010E943F0F60E031
:104AB000C8010E946F11C8010E94770E62E874E07D
:104AC000C8010E943F0F50E040E062E070E0C80182
:104AD0000E946E0DC8010E94770E609124067091AD
:104AE0002506C8010E94271050E040E070E060E019
:104AF000C8010E946E0DC8010E94770E6EE674E038
:104B0000C8010E943F0F41E050E070E060E0C80142
:104B10000E946E0DC8010E94770E8091240690912C
:104B200025068E9DB0018F9D700D9E9D700D1124E8
:104B300090E080E00E947E0463E674E0C8010E9479
:104B40003F0FB80180E496E00E94260DC8010E9444
:104B5000770E64E670E080E090E00E947E04C80179
:104B60000E94E410B80184E396E00E942C0EC80174
:104B70000E94770E64E574E0C8010E943F0FB801FF
:104B800084E396E00E94280E6C01C8010E94770E13
:104B90001C141D040CF0BEC364E376E0C8010E943F
:104BA000DB1041E050E062E070E0C8010E946E0D51
:104BB000C8010E94770E65E673E0CE0109960E9457
:104BC000DF1164E376E0C8010E94DB1022E0AE0151
:104BD000475F5F4FB801CE010F960E945213BE018E
:104BE000615F7F4F8EE096E00E942C0ECE010F9603
:104BF0000E94770EC8010E94770ECE0109960E948E
:104C0000770E20911206309113062550310950E09D
:104C100040E06EE076E0C8010E940613B8018EE025
:104C200096E00E942C0EC8010E94770E65E673E0A4
:104C3000CE0109960E94DF1164E376E0C8010E946C
:104C4000DB1023E0AE01475F5F4FB801CE010F9646
:104C50000E945213BE01615F7F4F82E096E00E9486
:104C60002C0ECE010F960E94770EC8010E94770E7F
:104C7000CE0109960E94770E65E673E0CE01099693
:104C80000E94DF1164E376E0C8010E94DB1024E09B
:104C9000AE01475F5F4FB801CE010F960E945213DD
:104CA000BE01615F7F4F88E096E00E942C0ECE012E
:104CB0000F960E94770EC8010E94770ECE010996CA
:104CC0000E94770E67E474E0C8010E943F0F50E035
:104CD00040E062E070E0C8010E946E0DC8010E94D1
:104CE000770E6EE076E0C8010E94DB1041E050E0F4
:104CF00070E060E0C8010E946E0DC8010E94770E4E
:104D00006AE374E0C8010E943F0F50E040E062E0B7
:104D100070E0C8010E946E0DC8010E94770E62E02B
:104D200076E0C8010E94DB1041E050E070E060E0F6
:104D3000C8010E946E0DC8010E94770E6CE274E0FB
:104D4000C8010E943F0F50E040E062E070E0C801FF
:104D50000E946E0DC8010E94770E68E076E0C801DF
:104D60000E94DB1041E050E070E060E0C8010E946A
:104D70006E0DC8010E94770E61E174E0C8010E94C7
:104D80003F0F60E0C8010E946F11C8010E94770EBA
:104D900069E074E0C8010E943F0F41E050E062E02A
:104DA00070E0C8010E946E0DC8010E94770E67E690
:104DB00073E0C8010E94DF116EE076E0C8010E9436
:104DC000000FBC0189E595E00E94260DC8010E94F4
:104DD000770E1092EB0463EB76E0C8010E94DB10C3
:104DE00024E0A80168E270E087E091E00E947C1D69
:104DF000C8010E94770E6DEA76E0C8010E94DB10C0
:104E000026E0A80163E370E087E091E00E947C1D4A
:104E1000C8010E94770E67EA76E0C8010E94DB10A5
:104E200025E0A8016DE370E087E091E00E947C1D21
:104E3000C8010E94770E61EA76E0C8010E94DB108B
:104E400023E0A80166E470E087E091E00E947C1D09
:104E5000C8010E94770E6BE976E0C8010E94DB1062
:104E600025E0A8016FE470E087E091E00E947C1DDE
:104E7000C8010E94770E65E976E0C8010E94DB1048
:104E800025E0A8016BE570E087E091E00E947C1DC1
:104E9000C8010E94770E6FE876E0C8010E94DB101F
:104EA00026E0A80167E670E087E091E00E947C1DA3
:104EB000C8010E94770E69E876E0C8010E94DB1005
:104EC00024E0A80164E770E087E091E00E947C1D87
:104ED000C8010E94770E63E876E0C8010E94DB10EB
:104EE00025E0A8016EE770E087E091E00E947C1D5C
:104EF000C8010E94770E6DE776E0C8010E94DB10C2
:104F000025E0A80168E870E087E091E00E947C1D40
:104F1000C8010E94770E67E776E0C8010E94DB10A7
:104F200026E0A80162E970E087E091E00E947C1D24
:104F3000C8010E94770E61E776E0C8010E94DB108D
:104F400027E0A8016DE970E087E091E00E947C1DF8
:104F5000C8010E94770E62E076E0C8010E94DB1073
:104F600029E0A80169EA70E087E091E00E947C1DD9
:104F7000C8010E94770E68E076E0C8010E94DB104D
:104F80002AE0A80167EB70E087E091E00E947C1DB9
:104F9000C8010E94770E6BE676E0C8010E94DB1024
:104FA00026E0A80166EC70E087E091E00E947C1D9D
:104FB000C8010E94770E68E076E089E595E00E94DE
:104FC000260D6BE676E089E595E00E94260D47E028
:104FD000A42E41E0B42E6501F60161916F0189E5CF
:104FE00095E00E94CA0584ED91E08C159D05A1F71E
:104FF00089E595E00E94110D89E595E00E9417066C
:1050000035E0C32ED12C0E94A817382E61E070E045
:10501000811102C070E060E0CE0109960E94531039
:105020006CE773E0C8010E94DF11BE01675F7F4F2C
:10503000C8010E94000FBC0189E595E00E94260D81
:10504000C8010E94770ECE0109960E94770E31109A
:1050500073C191E0C91AD108B1F60E94A817DD24E6
:10506000D394811101C0D12C64E973E089E595E006
:105070000E94020D4D2D50E070E060E02AE089E5CD
:1050800095E00E94980D89E595E00E94110D68EE6B
:1050900073E080E090E00E947E04DD2009F4B6C059
:1050A00066EA73E0C8010E94DF1161E0C8010E9456
:1050B0006F11C8010E94770E61EB73E089E595E0FE
:1050C0000E94E40D99EDC92E91E0D92E312C2AE0F1
:1050D000222E832D622D0E943A2F911104C089E562
:1050E00095E00E94110DF60161916F01C8010E94C7
:1050F000F011C8010E94F704C8010E94770E64EA0B
:1051000073E0C8010E94DF11C8010E94F704C801C2
:105110000E94770E65E070E080E090E00E947E04DF
:105120003394FBE13F12D5CF89E595E00E94110D44
:10513000D12C8AE0C82E8D2D6C2D0E943A2F911112
:1051400004C089E595E00E94110DF50161915F01B0
:10515000C8010E94F011C8010E94F704C8010E9412
:10516000770E64EA73E0C8010E94DF11C8010E9453
:10517000F704C8010E94770E65E070E080E090E0DF
:105180000E947E04D394FDECDF12D5CF6AE180E467
:1051900096E00E94B30A68EE73E080E090E00E941F
:1051A0007E04C8010E94E410B80184E396E00E94E6
:1051B0002C0EC8010E94770E6BEF73E0C8010E94AD
:1051C0003F0F50E040E062E070E0C8010E946E0DC9
:1051D000C8010E94770E64E376E0C8010E94DB10EC
:1051E00041E050E070E060E0C8010E946E0DC8012F
:1051F0000E94770E62EC73E089E595E00E94E40D71
:1052000060ED77E080E090E00E947E046FEE73E056
:10521000C8010E943F0F61E0C8010E946F11C801E0
:105220000E94770E64EE73E0C8010E943F0F61E0B8
:10523000C8010E946F1180931E06C8010E94770E5C
:10524000509225064092240660E080911A060E9442
:10525000D30360ED73E0C8010E943F0F50E040E0CF
:1052600062E070E0C8010E946E0DC8010E94770ED6
:105270006091240670912506C8010E94271050E015
:1052800040E070E060E0C8010E946E0DC8010E941D
:10529000770E69EC73E0C8010E943F0F41E050E0D7
:1052A00070E060E0C8010E946E0DC8010E94770E98
:1052B00080912406909125068E9DB0018F9D700DE2
:1052C0009E9D700D112490E080E00E947E0460910C
:1052D00003017091040180910501909106010E94E3
:1052E0003D1C6114710409F447CB0E949405882386
:1052F00009F43BCB0E94000038CB9E3040F428508C
:10530000310981E001C0880F2A95EAF7BAC92E5009
:105310003109F7CF6EE174E0C8010E943F0F50E001
:1053200040E062E070E0C8010E946E0DC8010E947A
:10533000770E64E376E013CDDD24D39495CE029707
:1053400061F46BEC73E089E595E00E94E40D68E898
:1053500073E180E090E00E947E048091D4019091FE
:10536000D501019709F0BDCF6DED73E089E595E0BA
:105370000E94E40D64EF71E080E090E00E947E0402
:10538000B0CFEF920F931F93CF93DF93E80134E0F8
:1053900047FD34E1042E000C550B57FF03C0519517
:1053A00041955109E32E022F242FAE010E94C32AFA
:1053B000CE01DF91CF911F910F91EF9008958F92C1
:1053C0009F92AF92BF92CF92DF92EF92FF92CF93D4
:1053D000DF93EC01688179818A819B816115710578
:1053E0008105910521F464E279ED8BE597E02DE1EB
:1053F00033EF41E050E00E942E2E49015A019B01FB
:10540000AC01A7EAB1E40E944D2E6B017C01ACEE29
:10541000B4EFA50194010E945B2EC60ED71EE81EB4
:10542000F91EF7FE06C081E0C81AD108E10880E83D
:10543000F80AC882D982EA82FB82C701B6019F7747
:10544000DF91CF91FF90EF90DF90CF90BF90AF9022
:105450009F908F9008958F929F92AF92BF92CF921C
:10546000DF92EF92FF926091F4017091F5018091CB
:10547000F6019091F701611571058105910521F4FF
:1054800064E279ED8BE597E02DE133EF41E050E008
:105490000E942E2E49015A019B01AC01A7EAB1E4FA
:1054A0000E944D2E6B017C01ACEEB4EFA50194017E
:1054B0000E945B2EC60ED71EE81EF91EF7FE06C020
:1054C00081E0C81AD108E10880E8F80AC092F40126
:1054D000D092F501E092F601F092F701C701B60112
:1054E0009F77FF90EF90DF90CF90BF90AF909F900D
:1054F0008F9008956093F4017093F5018093F60105
:105500009093F7010895FB01DC0105900D920020B6
:10551000E1F70895FC0105900020E9F7809590954A
:105520008E0F9F1F0895BB274A3031F4992322F430
:10553000BDE2909581959F4F0C94AA2A4532510562
:1055400020F4423010F00C94A92AFB011082CB0108
:105550000895BB27FB015527AA27880F991FAA1F6B
:10556000A41710F0A41B83955051B9F7A05DAA337E
:1055700008F0A95DA193009779F7B111B193119249
:10558000CB010C94FA2CA9E0B0E0E9ECFAE20C941F
:10559000662E6A01F22EB02E102FFBE3AF2EA0165E
:1055A00008F41BE31F5F012F27E0AE014F5F5F4F41
:1055B0000E94222CBC018981982F9970913009F4A6
:1055C0003FC09BE2E1FC04C09E2D9170E0FC3AC01C
:1055D0005E2D5071E82FE87083FF46C084E0911182
:1055E00001C083E0EF2DE81B8F1508F0E0E0D60145
:1055F0008E2F20E2552351F1992329F0D6019C9357
:10560000C60101966C0196012D5F3F4FE2FE24C05A
:105610008EE4D6018C9391E411969C931197129687
:105620008C93D9018E2F90E281111BC0E20FF32FD2
:10563000F11D10828EEF9FEF2996ECE00C94822EE4
:105640009DE2C6CF90E2C4CF2D9381508111FCCF53
:10565000CE0ED11CE0E0D0CF8EE6D6018C9391E641
:10566000DBCF9D938150E0CF482F447082FF3DC037
:1056700084E0911101C083E08F1510F4EF2DE81B39
:10568000D6018E2F20E2552309F1992329F0D60166
:105690009C93C60101966C0196012D5F3F4FE2FE7F
:1056A0001BC089E4D6018C938EE411968C931197DC
:1056B00086E412968C93D9018E2F90E2882309F408
:1056C000B5CF9D938150FACF2D9381508111FCCF9E
:1056D000CE0ED11CE0E0D9CF89E6D6018C938EE6C0
:1056E00011968C93119786E6E4CF9B0177FF02C059
:1056F00030E020E0A1E0B0E0911102C0B0E0A0E015
:10570000F9013196AE0FBF1F8B2C912CBB2009F4F1
:1057100061C05401EFEFAE1ABE0AAA0DBB1DFA1606
:105720001B0619F014F04F2D4A1B511188C0E3FCE1
:1057300059C07601A42FB0E2A1114FC0C40ED11CF4
:10574000992309F45BC040E0D6011196F6019083DD
:105750006D01552309F448C0012F060F9A81582F77
:10576000507184FF03C0913309F4015010160CF0FE
:1057700047C0093008F008E0EEE2FE2E5B01A01AF7
:10578000B10885019194819491082F3F320729F443
:10579000D601FC92F60131966F016217730794F1FE
:1057A000021713077CF5DB01A21BB30BAA24A394F9
:1057B000B12CAC0EBD1EAA0DBB1D11968C912150B3
:1057C0003109D601119628153905F4F0F6018083C8
:1057D0006D01DBCFB12CA12CA0CFF701B1937F01DC
:1057E000A150AACF9111B0CFD601942F50E302C09F
:1057F0005D9391509111FCCFC40ED11C40E0ACCF11
:1058000001E0BACF80E3DBCF6217730731F4963340
:1058100088F4953311F4552369F0F6018083FD0176
:10582000842F90E2811108C0A40FB11D1C9290E05A
:1058300080E002CF81E3F1CF91938150F3CF9111BA
:1058400083CF8ACF283008F027E03327DA01990F79
:10585000311D87FD916000966105710539F4326054
:105860002E5F3D9330E32A95E1F708959F3F30F096
:1058700080387105610509F03C5F3C5F3D939130D4
:1058800008F08068911DDF93CF931F930F93FF92D1
:10589000EF92192F987F9695E92F96959695E90F97
:1058A000FF27EE53FF4F99273327EE24FF24A7014C
:1058B000E70105900894079428F4360FE71EF81EB8
:1058C000491F511D660F771F881F991F0694A1F766
:1058D0000590079428F4E70EF81E491F561FC11DB6
:1058E000770F881F991F661F0694A1F705900794EC
:1058F00028F4F80E491F561FC71FD11D880F991F86
:10590000661F771F0694A1F70590079420F4490FAE
:10591000561FC71FD81F990F661F771F881F069431
:10592000A9F784911095177041F0D695C7955795B2
:105930004795F794E7941A95C1F7E8E6F0E0689484
:105940001590159135916591959105907FE273952C
:10595000E118F10A430B560BC90BD009C0F7E10C53
:10596000F11E431F561FC91FD01D7EF4703311F462
:105970008A95E6CFE894015030F0080F0AF400272A
:10598000021708F4202F2395022F7A3328F079E3A9
:105990007D932A95E9F710C07D932A9589F60694A0
:1059A00097956795379517951794E118F10A430B6A
:1059B000560BC90BD00998F023957E9173957A33D5
:1059C00008F070E37C932013B8F77E9170617D93AB
:1059D00030F0839571E37D9370E32A95E1F711240C
:1059E000EF90FF900F911F91CF91DF91992787FD45
:1059F00090950895DC01FC01672F71917723E1F701
:105A0000329704C07C916D9370836291AE17BF078B
:105A1000C8F308950E944C2D08F481E00895E8949D
:105A200009C097FB3EF490958095709561957F4FE6
:105A30008F4F9F4F9923A9F0F92F96E9BB27939594
:105A4000F695879577956795B795F111F8CFFAF4A4
:105A5000BB0F11F460FF1BC06F5F7F4F8F4F9F4FD5
:105A600016C0882311F096E911C0772321F09EE833
:105A7000872F762F05C0662371F096E8862F70E099
:105A800060E02AF09A95660F771F881FDAF7880F73
:105A90009695879597F90895990F0008550FAA0BC9
:105AA000E0E8FEEF16161706E807F907C0F0121631
:105AB0001306E407F50798F0621B730B840B950B34
:105AC00039F40A2661F0232B242B252B21F4089589
:105AD0000A2609F4A140A6958FEF811D811D089526
