:100000000C944F010C9480010C9480010C9480019D
:100010000C9480010C9480010C9480010C9480015C
:100020000C9480010C9480010C9480010C9480014C
:100030000C9480010C9480010C9480010C9480013C
:100040000C9480010C9480010C9480010C9480012C
:100050000C9480010C9480010C9480010C94DB08BA
:100060000C9480010C94A5080C947B080C948001DE
:100070000C9480010C9480010C9480010C948001FC
:100080000C9480010C9480010C9480010C948001EC
:100090000C9480010C9480010C9480010C9425092F
:1000A0000C9480010C9480010C9480010C948001CC
:1000B0000C9480010C9480010C9480010C948001BC
:1000C0000C9480010C9480010C9480010C948001AC
:1000D0000C9480010C9480010C9480010C9480019C
:1000E0000C9480010C9431030C9406050C944D057E
:1000F0000C9435030C940C030C942B030C943903CF
:100100000C94A00B0C9420050C94910D0C941D03E1
:100110000C943F030C9423030C941A020C941905BD
:100120000C94E2010C94730D0C94C0010C948B0D93
:100130000C94F7040C9410030C94880D0C94830118
:100140000C94D4010C9427030C9443030C947C0D61
:100150000C9408030C94560A0C9484010C947C05AE
:100160000C948E0D0C9404030C9482010C941303D4
:100170000C94850D0C94B1010C9419030C94F202AB
:100180000C94ED020C94AC0B0C94F6040C946C02E1
:1001900000002200250028002B002E003100340032
:1001A00002010000050108010B0105050505070511
:1001B00008080808020202020A0A080804040404E3
:1001C000010101010101010103030303030303030F
:1001D000040707070C0C0C0C0C0C0C0C020202029E
:1001E00006060606060606060B0B0B0B0B0B0B0B87
:1001F0000102102020080810204010204080020139
:10020000020108040201010204081020408080401D
:10021000201008040201800402018040201008041C
:1002200002010804020101020408102040800102BA
:1002300004081020408000000A0B02090C0D0E0873
:10024000070304010000000000000000000000009F
:10025000000000000000000000000000000000009E
:10026000000012111000000000000000000000005B
:1002700000000000000000000000000031303A34AF
:10028000363A313000417567202033203230323227
:10029000001F1C1F1E1F1E1F1F1E1F1E560A11247B
:1002A0001FBECFEFD1E2DEBFCDBF00E00CBF24E028
:1002B000A4E4B3E001C01D92A63BB207E1F713E04E
:1002C000A0E0B2E0E6E2F4E200E00BBF02C007907B
:1002D0000D92A434B107D9F711E0CFE4D1E000E0EA
:1002E00006C021970109802FFE010E94E410CE3440
:1002F000D10780E00807A9F70E948F0A0C94111219
:100300000C94000008950895AF92BF92CF92DF92AF
:10031000EF92FF920F931F93CF93DF936C017B01BA
:100320008B01040F151FEB015E01AE18BF08C0174B
:10033000D10759F06991D601ED91FC910190F081BE
:10034000E02DC6011995892B79F7C501DF91CF9171
:100350001F910F91FF90EF90DF90CF90BF90AF90E3
:100360000895FC01538D448D252F30E0842F90E0BB
:10037000821B930B541710F0CF96089501970895A0
:10038000FC01918D828D981761F0A28DAE0FBF2F69
:10039000B11D5D968C91928D9F5F9F73928F90E0BF
:1003A00008958FEF9FEF0895FC01918D828D98172E
:1003B00031F0828DE80FF11D858D90E008958FEF6B
:1003C0009FEF0895FC01918D228D892F90E0805C34
:1003D0009F4F821B91098F739927089589E094E0BC
:1003E0000E94E20121E0892B09F420E0822F089588
:1003F000FC01A48DA80FB92FB11DA35ABF4F2C919A
:10040000848D90E001968F739927848FA689B78990
:100410002C93A089B1898C91837080648C93938D87
:10042000848D981306C00288F389E02D80818F7D2A
:1004300080830895EF92FF920F931F93CF93DF93E2
:10044000EC0181E0888F9B8D8C8D98131AC0E88910
:10045000F989808185FF15C09FB7F894EE89FF89DF
:100460006083E889F98980818370806480839FBF7D
:1004700081E090E0DF91CF911F910F91FF90EF907D
:100480000895F62E0B8D10E00F5F1F4F0F7311278D
:10049000E02E8C8D8E110CC00FB607FCFACFE889C8
:1004A000F989808185FFF5CFCE010E94F801F1CF57
:1004B000EB8DEC0FFD2FF11DE35AFF4FF0829FB73C
:1004C000F8940B8FEA89FB8980818062CFCF682FF7
:1004D00089E094E00C941A02CF93DF93EC01888DAD
:1004E0008823B9F0AA89BB89E889F9898C9185FDAF
:1004F00003C0808186FD0DC00FB607FCF7CF8C913D
:1005000085FFF2CF808185FFEDCFCE010E94F801FB
:10051000E9CFDF91CF91089580E090E0892B29F019
:100520000E94EE0181110E94000080E090E0892B82
:1005300049F080E090E0892B29F00E9400008111B1
:100540000E94000080E090E0892B49F080E090E07C
:10055000892B29F00E94000081110E94000080E098
:1005600090E0892B49F080E090E0892B29F00E94EF
:10057000000081110C9400000895282F30E0F9014B
:10058000EA5CFD4F9491F901E051FE4F44912655EC
:100590003E4FF9012491222309F435C0992311F12A
:1005A00091509231F8F4E92FF0E08827E552FD4FA1
:1005B0008F4F0C94E4100C031003ED0204030803A6
:1005C000F202130319031D03230327032B03310333
:1005D0003503F20239033F034303809180008F7794
:1005E00080938000E22FF0E0EE0FFF1FE057FE4FF8
:1005F000A591B4918FB7F894EC91611148C04095E2
:100600004E234C938FBF0895809180008F7DE8CF5B
:1006100080918000877FE4CF84B58F7784BDE2CF5F
:1006200084B58F7DFBCF8091B0008F778093B00031
:10063000D9CF8091B0008F7DF9CF809190008F77D6
:1006400080939000CFCF809190008F7DF9CF8091E3
:100650009000877FF5CF8091A0008F778093A000D6
:10066000C1CF8091A0008F7DF9CF8091A000877FBE
:10067000F5CF809120018F7780932001B3CF8091B7
:1006800020018F7DF9CF80912001877FF5CF4E2B00
:10069000B8CF3FB7F89480918D0390918E03A091CD
:1006A0008F03B091900326B5A89B05C02F3F19F08A
:1006B0000196A11DB11D3FBFBA2FA92F982F8827E2
:1006C000BC01CD01620F711D811D911D42E0660FBD
:1006D000771F881F991F4A95D1F708958F929F928F
:1006E000AF92BF92CF92DF92EF92FF924B015C01EB
:1006F0000E9449036B017C010E9449036C197D092A
:100700008E099F09683E734081059105A8F321E099
:10071000821A9108A108B10888EEC80E83E0D81E9D
:10072000E11CF11C81149104A104B10429F7FF908C
:10073000EF90DF90CF90BF90AF909F908F900895F3
:1007400020916503260F3327331F21323105ECF446
:100750002091DF03FC0190E080E0243069F082E02A
:100760000895A09165032191AC014B5B5C4FA40FF0
:10077000B52FB11D2C930196861798F380916503D0
:10078000680F6093650380E0089581E008951092FA
:10079000DF0381E08093DE031092B90361E084E11E
:1007A0000E94BD0261E085E10E94BD02E9EBF0E03C
:1007B00080818E7F808380818D7F808388E4809399
:1007C000B80085E48093BC000895CF93DF9391E057
:1007D000909344038823B9F0C091B800D091BA0037
:1007E0008091BC008A7B8093BC0060E084E10E9421
:1007F000BD0260E085E10E94BD020E94C703D09364
:10080000BA00C093B800DF91CF9108958F929F9264
:10081000AF92BF92CF92DF92EF92FF920F931F930E
:10082000CF93DF93D0910804D13208F0D7C0182FAE
:10083000C09107040E9449036B017C018091DF0392
:1008400081116BC082E08093DF031093DE038FEF92
:100850008093DD031092DC03D093DB03A7EEB3E0BB
:10086000EBEBF3E080E0D81391C01092BA038091D3
:10087000BA03CC0FC82BC093BA038091B90381305F
:1008800009F088C01092B9030E9449036B017C01F2
:100890008091BA038093BB008091E1039091E203C1
:1008A000A091E303B091E403892B8A2B8B2BA1F059
:1008B0000E9449030091E1031091E2032091E303B8
:1008C0003091E4036C197D098E099F0906171707FB
:1008D0002807390708F442C08091BC0083FDD8CFB7
:1008E00085EC8093BC000E9449036B017C018091E0
:1008F000DF03823009F450C08091DD038F3F09F49B
:100900006FC08091DD03803209F46CC08091DD03FB
:10091000803309F469C084E026C08091E10390919E
:10092000E203A091E303B091E403892B8A2B8B2B84
:1009300009F484CF0E9449038090E1039090E20380
:10094000A090E303B090E4036C197D098E099F0920
:1009500086169706A806B90608F070CF8091E003C6
:100960000E94E50385E01092E603109208041092BD
:10097000E503DF91CF911F910F91FF90EF90DF90F2
:10098000CF90BF90AF909F908F9008959D9191933D
:100990008F5F69CF85EEA5CF8091E1039091E2034F
:1009A000A091E303B091E403892B8A2B8B2B09F4EC
:1009B0009ECF0E9449030091E1031091E203209130
:1009C000E3033091E4036C197D098E099F09061732
:1009D00017072807390708F08ACFC0CF81E0C3CFB7
:1009E00080E0C1CF82E0BFCF83E0BDCF0895E0912A
:1009F000980380919703E81730F4F0E0E756FC4F36
:100A0000808190E008958FEF9FEF08959091980373
:100A1000809197032FEF3FEF981748F4E92FF0E00C
:100A2000E756FC4F208130E09F5F90939803C90107
:100A300008958091970390919803891B990B0895CD
:100A4000CF92DF92EF92FF920F931F93CF93DF939A
:100A50007C01CB018A012091E503222389F0EB017F
:100A60006B01C40ED51ECC15DD0569F06991D70167
:100A7000ED91FC910190F081E02DC7011995F3CF24
:100A8000642F0E94A003C801DF91CF911F910F91A5
:100A9000FF90EF90DF90CF900895CF93DF931F9258
:100AA000CDB7DEB769832091E5032223F9F02091C9
:100AB0000804203258F021E030E0FC013383228327
:100AC00090E080E00F90DF91CF9108958091E60350
:100AD000E82FF0E0E951FC4F998190838F5F80937C
:100AE000E6038093080481E090E0ECCF61E0CE0162
:100AF00001960E94A003F7CF90E080E00895CF9385
:100B0000DF93EC018B818823A1F0888191E09093A1
:100B1000E503809307041092E6031092080481E035
:100B20000E94060491E0811190E0892FDF91CF911E
:100B3000089510929803109297031092E603109272
:100B400008040E94C70382E891E090939403809385
:100B5000930383E891E0909392038093910381E063
:100B60008B83CE010E947F05982F8111CECFDDCFE0
:100B7000DC0150E0E1E9F2E081E0861730F4949185
:100B8000490F511D8F5F3196F8CF633038F0CD019A
:100B900083709927892B11F44F5F5F4F9D012D5F63
:100BA0003F4F36952795369527956DE671E0A69FC0
:100BB000C001A79F900DB69F900D11240197820F41
:100BC000931F840F951F0895EF92FF920F931F9329
:100BD000CF93DF93EC0188814A81698190E00E9484
:100BE000B8059C01A8E1B0E00E94ED0F2B817B01CC
:100BF0008C01E20EF11C011D111DA8019701ACE34F
:100C0000B0E00E94E20F2C817B018C01E20EF11C0E
:100C1000011D111DA80197010E94E20FAB01BC014B
:100C20009D81892F90E0B0E0A0E080589C4BA249C4
:100C3000B74C8A019B01080F191F2A1F3B1FC901CE
:100C4000B801DF91CF911F910F91FF90EF90089520
:100C5000FC0101900020E9F73197AF01481B590BC7
:100C6000BC0189E094E00C9484018F929F92AF9232
:100C7000BF920F931F93CF93DF93CDB7DEB7A197AA
:100C80000FB6F894DEBF0FBECDBF19A2423008F4F4
:100C90004AE08E010F5D1F4F842E912CB12CA12CA8
:100CA000A50194010E94C210E62FB901CA01EA30E1
:100CB000F4F4E05DD801EE938D01232B242B252B3A
:100CC00079F790E080E0109719F0CD010E94280696
:100CD000A1960FB6F894DEBF0FBECDBFDF91CF91C6
:100CE0001F910F91BF90AF909F908F900895E95CF6
:100CF000E1CFCF93DF930E942806EC018EE792E0CC
:100D00000E9428068C0F9D1FDF91CF9108952F928E
:100D10003F924F925F926F927F928F929F92AF928B
:100D2000BF92CF92DF92EF92FF920F931F93CF93D8
:100D3000DF935C011B016A01F12CE12CD5011496B3
:100D40008D919C9186010E191F098017910708F457
:100D50008C01F501D0810E9449032B013C01809157
:100D6000DF03811172C0C02F013208F0C0E2F1E050
:100D7000F093DF0321E0C601801B910BE816F90612
:100D800008F420E02093DE038FEF8093DD031092C0
:100D9000DC038C0F8093DB03A1E0A093BA03809166
:100DA000BA03DD0FD82BD093BA038091B9038130F9
:100DB00009F090C01092B9030E9449032B013C0135
:100DC0008091BA038093BB008091E1039091E2038C
:100DD000A091E303B091E403892B8A2B8B2BA1F024
:100DE0000E9449032091E1033091E2034091E30323
:100DF0005091E40364197509860997092617370786
:100E00004807590708F442C08091BC0083FDD8CF41
:100E1000B5ECB093BC000E9449032B013C018091CA
:100E2000DF03813009F45AC08091DC038C1710F481
:100E3000C091DC03ABEBB3E0E9E9F3E080E08C17B1
:100E400051F19D9191938F5FFACF8091E103909141
:100E5000E203A091E303B091E403892B8A2B8B2B4F
:100E600009F47DCF0E9449032091E1033091E20310
:100E70004091E3035091E4036419750986099709C9
:100E8000261737074807590708F069CF8091E00314
:100E90000E94E503C0E010929803C0939703C01727
:100EA000110609F057C041018E0C9F1CE401CE01D0
:100EB000881999098017910798F5D50111968D9198
:100EC0009C91DC01ED91FC910284F385E02D199554
:100ED0008993EDCFE5EEE093BC009DCF8091E103D7
:100EE0009091E203A091E303B091E403892B8A2B54
:100EF0008B2B09F494CF0E9449032091E103309198
:100F0000E2034091E3035091E403641975098609F3
:100F10009709261737074807590708F080CFB6CF3B
:100F2000E00EF11EEC14FD0408F408CF81E0DF911F
:100F3000CF911F910F91FF90EF90DF90CF90BF90D6
:100F4000AF909F908F907F906F905F904F903F9069
:100F50002F90089580E0EBCF1F93CF93DF93DC01B8
:100F60001496ED91FC91E417F50710F490E01FC082
:100F7000122FEA01FC0181819281208131E03093BE
:100F8000E503209307041092E60310920804DC01A5
:100F9000ED91FC910280F381E02D1995C817D907D6
:100FA00029F7812F0E94060491E08111DFCF892F5C
:100FB000DF91CF911F910895CF93DF931F921F92DE
:100FC000CDB7DEB78FE08A8321E041E050E0BE017B
:100FD0006E5F7F4F80919503909196030E94AC07BE
:100FE00041E050E0BE016F5F7F4F8091950390918B
:100FF00096030E94870689810F900F90DF91CF9111
:101000000895682F70E090E080E04AE00C94350687
:10101000CF93DF938091950390919603009711F001
:101020000E94881186E090E00E94EC10EC0188E6B6
:10103000888386EA94E09A8389831B8280E290E029
:101040009D838C83D0939603C0939503109298034D
:10105000109297031092E603109208040E94C703AF
:1010600082E891E0909394038093930383E891E066
:10107000909392038093910381E08B83CE01DF9163
:10108000CF910C947F0585ED8093BC008091E103A6
:101090009091E203A091E303B091E4030796A11DB0
:1010A000B11D23E0B695A795979587952A95D1F719
:1010B0002091BC0024FD03C01092DF0308954091ED
:1010C000E1035091E2036091E3037091E403452B47
:1010D000462B472B69F30097A105B10541F02AE2A1
:1010E0002A95F1F700C00197A109B109E1CF8091DC
:1010F000E0030C94E5031F920F920FB60F92112498
:101100000BB60F922F933F934F935F936F937F9301
:101110008F939F93AF93BF93EF93FF9389E094E0F6
:101120000E94F801FF91EF91BF91AF919F918F9134
:101130007F916F915F914F913F912F910F900BBED7
:101140000F900FBE0F901F9018951F920F920FB621
:101150000F9211240BB60F922F938F939F93EF93BF
:10116000FF93E0911904F0911A048081E0911F042B
:10117000F091200482FD1DC09081809122048F5F38
:101180008F7320912304821741F0E0912204F0E054
:10119000E75FFB4F958F80932204FF91EF919F9122
:1011A0008F912F910F900BBE0F900FBE0F901F903D
:1011B00018958081F2CF1F920F920FB60F921124D3
:1011C0002F933F938F939F93AF93BF938091890306
:1011D00090918A03A0918B03B0918C033091880386
:1011E00023E0230F2D3758F50196A11DB11D209343
:1011F00088038093890390938A03A0938B03B09311
:101200008C0380918D0390918E03A0918F03B091F8
:1012100090030196A11DB11D80938D0390938E03C1
:10122000A0938F03B0939003BF91AF919F918F9143
:101230003F912F910F900FBE0F901F90189526E8A9
:10124000230F0296A11DB11DD2CF1F920F920FB690
:101250000F9211240BB60F922F933F934F935F93EE
:101260006F937F938F939F93AF93BF93EF93FF936E
:101270008091B900887F803609F44DC008F040C0E5
:10128000883209F4A9C028F5803109F49DC0C8F45A
:10129000882309F4FBC0883009F496C0FF91EF91D0
:1012A000BF91AF919F918F917F916F915F914F917E
:1012B0003F912F910F900BBE0F900FBE0F901F907C
:1012C0001895883109F488C0803241F78093DD0396
:1012D00014C0803409F49DC040F48033B9F38833DE
:1012E000E9F68093DD0385ECB0C0803509F485C054
:1012F000883509F496C0883489F60E944308CECF19
:10130000883909F48CC038F5883729F050F48836CC
:1013100011F0803719F683E08093DF031092870382
:1013200057C0883809F47BC0803919F0803809F03B
:10133000B5CF80918703803208F071C0E0918703B8
:1013400081E08E0F809387038091BB00F0E0E95924
:10135000FC4F80833DC0803B39F0E0F4803A09F4D3
:1013600079C0883A09F09ACF84E08093DF03109225
:10137000660310926503E0919303F091940319952D
:101380008091650381110FC081E080936503109205
:10139000450309C0803C09F4A6CF883C09F4A3CFDB
:1013A000883B09F07BCFE091660381E08E0F80934C
:1013B0006603F0E0EB5BFC4F80818093BB00909173
:1013C00066038091650329C08091BA038093BB00B6
:1013D00085EC8093BC0062CF9091DC038091DB03AD
:1013E000981758F5E091DC0381E08E0F8093DC03C1
:1013F000F0E0E554FC4F8081E9CFE091DC0381E02F
:101400008E0F8093DC038091BB00F0E0E554FC4F2D
:1014100080839091DC038091DB039817C8F285E804
:10142000D8CFE091DC0381E08E0F8093DC038091C4
:10143000BB00F0E0E554FC4F80838091DE03811116
:101440005CCF81E08093B90384EA8093BC00109262
:10145000DF0324CF85EC8093BC001092DF038091E2
:101460008703803230F4E0918703F0E0E959FC4FC4
:1014700010826091870370E0E0919103F0919203F4
:1014800087E693E019951092870308CF1092DD0349
:1014900034CFFC01908190539A3008F090E0818124
:1014A00080532AE0929F800D11240895E9E0F4E032
:1014B0001382128288EE93E0A0E0B0E084839583EB
:1014C000A683B7832EE532E03183208325EC30E01C
:1014D0003587248724EC30E03787268720EC30E0FE
:1014E000318B208B21EC30E0338B228B22EC30E0EF
:1014F000358B248B26EC30E0378B268B118E128EA9
:10150000138E148EE6EAF4E01382128284839583AC
:10151000A683B78380E792E0918380830895CF9379
:10152000DF93CDB7DEB761970FB6F894DEBF0FBE7D
:10153000CDBF789484B5826084BD84B5816084BD5C
:1015400085B5826085BD85B5816085BD80916E0061
:10155000816080936E001092810080918100826092
:1015600080938100809181008160809381008091CF
:1015700080008160809380008091B10084608093BE
:10158000B1008091B00081608093B00080919100A3
:10159000826080939100809191008160809391009E
:1015A000809190008160809390008091A100826082
:1015B0008093A1008091A10081608093A10080911F
:1015C000A00081608093A0008091210182608093BF
:1015D000210180912101816080932101809120016E
:1015E00081608093200180917A00846080937A00EA
:1015F00080917A00826080937A0080917A00816085
:1016000080937A0080917A00806880937A001092AB
:10161000C100E0911904F0911A0482E08083E09106
:101620001504F09116041082E0911704F09118044B
:101630008FEC808310922104E0911D04F0911E0430
:1016400086E08083E0911B04F0911C04808180611E
:101650008083E0911B04F0911C048081886080836A
:10166000E0911B04F0911C04808180688083E091EC
:101670001B04F0911C0480818F7D808381E892E0BF
:101680000E9479068CE892E00E9479060E94080880
:1016900085E992E00E9479060E94080881110FC036
:1016A0008EE992E00E94790689E094E00E946C0243
:1016B0006AE070E080E090E00E946E03F9CF80EB7A
:1016C00092E00E9479060E94DC0790E0880F892F43
:1016D000881F990B8E010F5F1F4F892B09F4C0C023
:1016E00086EB92E00E9479064BE050E065E872E0FC
:1016F000C8010E94B50ECE010A960E94490AE82E42
:10170000E981E154E33140F50E2E000CFF0B8827F0
:10171000E357F44F8F4F0C94E410730DAC0BAC0BEC
:101720008E0DAC0B910DAC0BAC0BAC0BA00BAC0B42
:10173000AC0B7C0D8B0D880DAC0BAC0BAC0B850D85
:101740008A81FF24F394813639F08B8126E0F22ED2
:101750008E3611F097E0F92ECE0105960E94490AC7
:10176000D82E48E050E06CE772E0C8010E94B50E48
:10177000C8010E94490AC82ECE0104960E94490A57
:10178000B82ECE0107960E94490A382F88E0F8014A
:1017900011928A95E9F72AE0832F622F0E94A21006
:1017A000982F880F890F880F830F8A838B2D0E94B3
:1017B000A210982F880F890F880F8B0D8B838C2D8B
:1017C0000E94A210982F880F890F880F8C0D8C8390
:1017D0004D2D6F2D8E2D90E00E94B805069667E086
:1017E00070E00E94AE10811101C087E08D832AE075
:1017F0008D2D622F0E94A210982F880F890F880FBD
:101800008D0D8E838F2D0E94A210982F990F890F16
:10181000880FF80EFF828E2D0E94A210982F880F3D
:10182000890F880F8E0D888721E048E050E0B801CD
:1018300080919503909196030E94AC070E94DC076B
:101840009FE09C878F778D8721E042E050E0BE01CA
:10185000645F7F4F80919503909196030E94AC073F
:101860008AED92E00E94790633E9232E3EEF332E73
:101870001982E0909503F090960320E041E050E05B
:10188000B801C7010E94AC07882331F047E050E05F
:10189000B801C7010E94870649814F775A817B8131
:1018A000ED812E812F773F81832F90E064E0959525
:1018B00087956A95E1F7982F990F990F682F691B03
:1018C000660F630F6C87822F90E0F4E09595879503
:1018D000FA95E1F7982F990F990F891B880F820FBE
:1018E0008D872E2F30E0A4E035952795AA95E1F756
:1018F000822F880F880F281B220F2E0F2E87872FED
:1019000090E0B4E095958795BA95E1F7982F990FF7
:10191000990F891B880F870F8F87252F30E084E070
:10192000359527958A95E1F7822F880F880F281B18
:10193000220F250F288B842F90E024E09595879522
:101940002A95E1F7982F990F990F891B880F840F1B
:10195000898B70E06053784F90E080E04AE00E940D
:1019600035068FE20E9467028D850E9401088FE292
:101970000E9467028E850E94010880EE92E00E941C
:1019800028068C854E856D8590E00E94B8050696E8
:1019900067E070E00E94AE10FCE0F89F9001F99FB4
:1019A000300D1124C90180509E4F0E94280683EEFD
:1019B00092E00E9428068F850E9401088AE30E9417
:1019C000670288890E9401088AE30E946702898968
:1019D0000E9401088EE792E00E94280686EE92E0BF
:1019E0000E942806CE010C960E94E4054AE00E945F
:1019F000350682E093E00E942806CE010C960E94F4
:101A0000E40520E831E541E050E00E94C210CA013F
:101A1000B9014AE00E94350687E093E00E9479060A
:101A2000CE010C960E94E4056B017C0122E3C21AF0
:101A300029E5D20A23E6E20A28E3F20AC701B60141
:101A40002CE330E040E050E00E94C210B62ECA0104
:101A5000B9012CE330E040E050E00E94C210A62E15
:101A6000C701B60120E13EE040E050E00E94C21014
:101A7000CA01B90128E130E040E050E00E94C21004
:101A8000962EC701B60120E831E541E050E00E9402
:101A9000C2106901F12C2F2D237081E090E011F02C
:101AA00090E080E031E03F0DAC0143595E4FC41639
:101AB000D506D0F5E1E9F2E0EE24E3945CE0E5162A
:101AC000D1F18491211104C092E0E91201C08F5F2D
:101AD00090E031E03E0D3196C816D90660F1C81A83
:101AE000D90AE32EEBCF8B81B8E0FB2E823709F0C9
:101AF00033CE84E0F82E30CE8B81A3E0FA2E8237ED
:101B000009F42ACEF5E0FF2E27CEE9E0FE2E24CE02
:101B10007AE0F72E21CE6BE0F62E1ECE5CE0F52E9D
:101B20001BCE42E0F42E18CEA101481B590BC40E67
:101B3000D51EF32EB0CF89E093E00E9428066F2DCA
:101B400070E06053784F90E080E04AE00E943506F4
:101B50008FE20E9467028E2D0E9401088FE20E9490
:101B6000670281E08C0D0E94010880E20E946702FA
:101B7000892D0E9401088AE30E9467028A2D0E9433
:101B800001088AE30E9467028B2D0E9401088EE7FC
:101B900092E00E94280686E293E00E942806E1E196
:101BA000E9831A82E0909503F090960320E041E0EB
:101BB00050E0B801C7010E94AC07882331F042E031
:101BC00050E0B801C7010E9487066A8170E086E094
:101BD000759567958A95E1F7072E000C880B990B90
:101BE0000E94C50E20E030E040E85EE30E94240F32
:101BF0006B017C01698170E090E080E00E94C30E7F
:101C00009B01AC01C701B6010E94FD0F6B017C0175
:101C10004B015C01AC019B010E949D108823A9F03F
:101C200084E393E00E94280680E493E00E94790612
:101C30008EE792E00E94280668EB7BE080E090E06F
:101C40000E946E030E948C0213CE26013701E89495
:101C500077F82FEF3FEF4FE75FE7C301B2010E9434
:101C60009D1081110DC02FEF3FEF4FE75FE7C301DC
:101C7000B2010E94BE0E18161CF488E393E0D2CF86
:101C80002FEF3FEF4FE75FE4C701B6010E949810C6
:101C900018161CF48CE393E0C5CF2FEF3FEF4FE70E
:101CA0005FECC701B6010E94BE0E87FDF3CF20E0B6
:101CB00030E0A901C701B6010E94BE0E87FF09C02E
:101CC0008DE20E94670246015701B7FAB094B7F857
:101CD000B0942AE037ED43EA5BE3C501B4010E940A
:101CE000FD0F4B015C010E9469106B017C010E9499
:101CF000C30E9B01AC01C501B4010E94FC0F4B0156
:101D00005C014AE0C701B6010E9435068EE20E94DE
:101D1000670220E030E040E251E4C501B4010E94D6
:101D2000240F4B015C010E9469106B01F12CE12C26
:101D30004AE0C701B6010E943506C701B6010E94FC
:101D4000C30E9B01AC01C501B4010E94FC0F20E051
:101D500030E040E251E40E94240F0E94691090E0BC
:101D600080E04AE00E9435065FCFFB01DC0102C043
:101D700005900D9241505040D8F708950E94000FF1
:101D800008F481E00895E89409C097FB3EF490952B
:101D90008095709561957F4F8F4F9F4F9923A9F044
:101DA000F92F96E9BB279395F695879577956795D3
:101DB000B795F111F8CFFAF4BB0F11F460FF1BC017
:101DC0006F5F7F4F8F4F9F4F16C0882311F096E9AA
:101DD00011C0772321F09EE8872F762F05C0662358
:101DE00071F096E8862F70E060E02AF09A95660F11
:101DF000771F881FDAF7880F9695879597F90895CA
:101E0000990F0008550FAA0BE0E8FEEF161617060B
:101E1000E807F907C0F012161306E407F50798F073
:101E2000621B730B840B950B39F40A2661F0232B8C
:101E3000242B252B21F408950A2609F4A140A69508
:101E40008FEF811D811D08950E94370F0C94A80FFC
:101E50000E949A0F38F00E94A10F20F0952311F0F4
:101E60000C94910F0C94970F11240C94DC0F0E948A
:101E7000B90F70F3959FC1F3950F50E0551F629F06
:101E8000F001729FBB27F00DB11D639FAA27F00DD3
:101E9000B11DAA1F649F6627B00DA11D661F829FFA
:101EA0002227B00DA11D621F739FB00DA11D621FDF
:101EB000839FA00D611D221F749F3327A00D611DFC
:101EC000231F849F600D211D822F762F6A2F1124DE
:101ED0009F5750409AF0F1F088234AF0EE0FFF1F11
:101EE000BB1F661F771F881F91505040A9F79E3F68
:101EF000510580F00C94910F0C94DC0F5F3FE4F3DC
:101F0000983ED4F3869577956795B795F795E795BD
:101F10009F5FC1F7FE2B880F911D9695879597F9C6
:101F2000089597F99F6780E870E060E008959FEF5B
:101F300080EC089500240A94161617061806090660
:101F4000089500240A94121613061406050608952F
:101F5000092E0394000C11F4882352F0BB0F40F4B7
:101F6000BF2B11F460FF04C06F5F7F4F8F4F9F4FF7
:101F7000089557FD9058440F551F59F05F3F71F079
:101F80004795880F97FB991F61F09F3F79F08795E0
:101F90000895121613061406551FF2CF4695F1DF69
:101FA00008C0161617061806991FF1CF86957105F9
:101FB000610508940895E894BB2766277727CB012D
:101FC00097F908950E94ED0FA59F900DB49F900D75
:101FD000A49F800D911D11240895A29FB001B39F6D
:101FE000C001A39F700D811D1124911DB29F700D22
:101FF000811D1124911D08955058BB27AA270E94C6
:1020000014100C94A80F0E949A0F38F00E94A10F90
:1020100020F039F49F3F19F426F40C94970F0EF436
:10202000E095E7FB0C94910FE92F0E94B90F58F34C
:10203000BA17620773078407950720F079F4A6F5AD
:102040000C94DB0F0EF4E0950B2EBA2FA02D0B0194
:10205000B90190010C01CA01A0011124FF27591BED
:1020600099F0593F50F4503E68F11A16F040A22FF3
:10207000232F342F4427585FF3CF46953795279564
:10208000A795F0405395C9F77EF41F16BA0B620B63
:10209000730B840BBAF09150A1F0FF0FBB1F661FAA
:1020A000771F881FC2F70EC0BA0F621F731F841FED
:1020B00048F4879577956795B795F7959E3F08F013
:1020C000B0CF9395880F08F09927EE0F97958795D5
:1020D00008950E94C10F88F09F5798F0B92F992753
:1020E000B751B0F0E1F0660F771F881F991F1AF003
:1020F000BA95C9F714C0B13091F00E94DB0FB1E07E
:1021000008950C94DB0F672F782F8827B85F39F07C
:10211000B93FCCF3869577956795B395D9F73EF49B
:1021200090958095709561957F4F8F4F9F4F089543
:102130000E94000F08F48FEF08950E94000F880B93
:10214000990B0895991B79E004C0991F961708F020
:10215000961B881F7A95C9F780950895AA1BBB1B0B
:1021600051E107C0AA1FBB1FA617B70710F0A61B97
:10217000B70B881F991F5A95A9F780959095BC01B8
:10218000CD010895A1E21A2EAA1BBB1BFD010DC0B3
:10219000AA1FBB1FEE1FFF1FA217B307E407F50717
:1021A00020F0A21BB30BE40BF50B661F771F881FF3
:1021B000991F1A9469F760957095809590959B0189
:1021C000AC01BD01CF010895EE0FFF1F881F8BBF2B
:1021D0000790F691E02D19940F931F93CF93DF93FF
:1021E0008230910510F482E090E0E091B404F09127
:1021F000B50430E020E0B0E0A0E0309799F421157C
:10220000310509F44AC0281B390B24303105D8F5B3
:102210008A819B816115710589F1FB01938382831A
:10222000FE0111C040815181028113814817590775
:10223000E0F04817590799F4109761F012960C9343
:10224000129713961C933296CF01DF91CF911F9175
:102250000F9108950093B4041093B504F4CF2115A1
:10226000310551F04217530738F0A901DB019A01FB
:10227000BD01DF01F801C1CFEF01F9CF9093B504A3
:102280008093B404CDCFFE01E20FF31F81939193AD
:102290002250310939832883D7CF2091B20430915D
:1022A000B304232B41F4209156023091570230930E
:1022B000B3042093B20420915402309155022115A9
:1022C000310541F42DB73EB7409158025091590263
:1022D000241B350BE091B204F091B304E217F3072D
:1022E000A0F42E1B3F0B2817390778F0AC014E5F86
:1022F0005F4F2417350748F04E0F5F1F5093B3040C
:102300004093B204819391939FCFF0E0E0E09CCFA3
:10231000CF93DF930097E9F0FC013297138212828A
:10232000A091B404B091B504ED0130E020E0109725
:10233000A1F420813181820F931F2091B20430914A
:10234000B3042817390709F061C0F093B304E09390
:10235000B204DF91CF910895EA01CE17DF07E8F5C7
:102360004A815B819E0141155105B1F7E901FB836B
:10237000EA8349915991C40FD51FEC17FD0761F409
:10238000808191810296840F951FE901998388834A
:10239000828193819B838A83F0E0E0E012968D91A5
:1023A0009C9113970097B9F52D913C911197CD0110
:1023B0000296820F931F2091B2043091B304281724
:1023C000390739F6309751F51092B5041092B404DC
:1023D000B093B304A093B204BCCFD383C283408133
:1023E0005181840F951FC817D90761F44E5F5F4F65
:1023F00088819981480F591F518340838A819B812D
:10240000938382832115310509F0B0CFF093B50491
:10241000E093B4049ECFFD01DC01C0CF1382128291
:06242000D7CFF894FFCFB6
:1024260053756E6461790000000000004D6F6E64A4
:1024360061790000000000005475657364617900DD
:10244600000000005765646E6573646179000000E2
:10245600546875727364617900000000467269649D
:10246600617900000000000053617475726461793F
:10247600000000000000B6048000000000001A0200
:102486008401B1016C02E201C001D4010000000028
:102496004D0520057C05F60419050605F7040D0A09
:1024A6000054657374696E672E2E2E00546573741E
:1024B600696E67310054657374696E673200436FE5
:1024C600756C646E27742066696E642052544300EE
:1024D600546573743200525443206C6F73742070C9
:1024E6006F7765722C206C65742773207365742072
:1024F6007468652074696D652100546573743300D2
:102506002028002920002073696E6365206D6964A8
:102516006E6967687420312F312F31393730203D8D
:10252600200073203D20006400206E6F77202B2052
:102536003764202B20313268202B2033306D202B3E
:102546002036733A200054656D7065726174757239
:10255600653A20006E616E00696E66006F766600F1
:04256600204300000E
:00000001FF
